:020000040800F2
:1000000010040020590E00082D0E00082F0E0008C5
:10001000310E0008330E0008350E00080000000005
:10002000000000000000000000000000370E000883
:10003000390E0008000000003B0E00083D0E0008CD
:10004000850E0008890E00088D0E0008910E00082C
:10005000950E0008990E00089D0E0008A10E0008DC
:10006000A50E0008A90E0008AD0E0008B10E00088C
:10007000B50E0008B90E0008BD0E0008C10E00083C
:10008000C50E0008C90E0008CD0E0008D10E0008EC
:10009000D50E0008D90E0008DD0E0008E10E00089C
:1000A000E50E0008E90E0008ED0E0008F10E00084C
:1000B000F50E0008F90E0008FD0E0008010F0008FB
:1000C000050F0008090F00080D0F0008110F0008A8
:1000D000150F0008190F00081D0F0008210F000858
:1000E000410E0008250F0008290F00082D0F0008F9
:1000F000310F0008350F0008390F00083D0F0008C8
:10010000410F0008450F0008490F00084D0F000877
:10011000510F0008550F0008590F00085D0F000827
:10012000610F0008650F0008690F00086D0F0008D7
:10013000710F0008750F0008790F00087D0F000887
:10014000810F0008850F0008890F00088D0F000837
:10015000910F0008950F0008990F00089D0F0008E7
:10016000A10F0008A50F0008A90F0008AD0F000897
:10017000B10F0008B50F0008B90F0008000000001B
:10018000BD0F0008C10F0008C50F0008C90F000807
:10019000CD0F0008D10F0008D50F0008D90F0008B7
:1001A000DD0F0008E10F0008E50F0008E90F000867
:1001B000ED0F0008F10F0008F50F0008F90F000817
:1001C000FD0F0008011000082DE9FC410446002540
:1001D000C4B12078DFF85C64C1074BD5B26802F087
:1001E0000C02042A07D0B06800F00C0008280BD1DC
:1001F0007168480208D5326891033BD560680028D1
:1002000040F0C980012066E16068B0F5803F0FD002
:1002100038B9316821F480313160306820F48020B1
:1002200009E0B0F5A02F08D1316841F48021316098
:10023000306840F48030306007E0326822F4803269
:100240003260316821F480213160606868B100F06B
:1002500001FA07463168880300F19D8000F0FAF941
:10026000C01B6528F6D3032035E100F0F3F90746FB
:100270003068810340F18F8000F0ECF9C01B6528E5
:10028000F6D3F0E700F0E6F9C01B022840F2B08098
:10029000E9E7E06880B1316841F00101316000F0C8
:1002A000D9F907463068810700F1CC8000F0D2F917
:1002B000C01B0228F6D9D6E73068400840003060FD
:1002C00000F0C8F907463168880766D500F0C2F922
:1002D000C01B0228F7D9C6E7706F4008400070675E
:1002E00000F0B8F90746706F810775D500F0B2F9D4
:1002F000C01B0228F7D9B6E708B9306F09E0052816
:10030000306F06D140F004003067316F41F00101D9
:1003100005E0400840003067316F21F0040131678B
:10032000A06841F2893768B100F094F98046306FD7
:10033000810700F1988000F08DF9A0EB0800B84229
:10034000F5D390E700F086F98046306F810740F1E1
:100350008A8000F07FF9A0EB0800B842F5D382E76D
:1003600000F078F9401B022840F294807BE700F00F
:1003700071F9001B022840F2A98074E700F06AF9C5
:1003800004463168880140F1A58000F063F9001B44
:100390000228F6D967E7207881071BD5B26812F0EA
:1003A0000C0F09D0B06800F00C0008287FF471AF82
:1003B000716848023FF56DAF3268910703D5E06878
:1003C00001287FF41FAF3168206921F0F80141EA6C
:1003D000C001316021780A070ED5606900283FF41A
:1003E0007BAF716F41F00101716700F033F907468F
:1003F000706F81077FF546AF2278500738D5316C92
:10040000CA0009D4306C012540F080503064316C52
:1004100001F0805100910098DFF824723968C80516
:1004200018D43A6842F480723A6000F013F98046BA
:100430003868C1050ED400F00DF9A0EB080065285E
:10044000F6D310E73068216920F0F80040EAC100D7
:100450003060BFE7A06801287FF44EAF306F40F0F6
:10046000010030675CE71DB1306C20F080503064D3
:10047000A06978B3B16801F00C0108293FF4C2AE5D
:100480000228306820F0807030607FF477AF00F091
:10049000E1F8054631688A013FF562AFE369206AF9
:1004A000A26A616A0343E06A43EA81135208521E5A
:1004B00043EA024343EA006343F000537360316848
:1004C00041F08071316000F0C5F804463068810168
:1004D0007FF54DAF0020BDE8F6812DE9F041040025
:1004E000884674D0574E306800F00F00404502D265
:1004F00000F06FF86BD120684E4D810712D5400790
:1005000003D5A96841F4E051A9602078010703D51B
:10051000AA6842F46042AA60A968A06821F0F001CC
:100520000143A9602178CA0749D56068012802D132
:1005300029688A0303E0022803D129688A0103D4C9
:1005400045E02B68990742D5AA68920840EA8200E4
:10055000A86000F07FF80746A868616800F00C000A
:10056000B0EB810F2BD000F075F8C01B41F289323F
:100570009042F1D3032020E02078410705D5AA68F6
:10058000E06822F4E0520243AA6021780A0706D507
:10059000A868216920F4604040EAC100A86000F02A
:1005A00022F8AA682849244BC2F30312895CC84088
:1005B0001860002000F054F80020BDE8F081306899
:1005C00000F00F008045D7D200F003F8D4D001200E
:1005D000F3E73168090948EA01113160326802F035
:1005E0000F024245704730B5184C606800F00C00AF
:1005F000042802D0082802D019E0154830BD002395
:100600002268206825684102C5F3881002F03F0285
:100610004CBF0F490949A1FB000100F041F82168D6
:10062000C1F30141491C4900B0FBF1F030BD034862
:1006300030BD0000003802400C0000200024F4000F
:1006400000700040003C0240480D000804380240A1
:1006500040787D0101484068704700BF00000020DD
:1006600038B50D4D04462A780C4B18684FF47A7152
:10067000B1FBF2F2B0FBF2F000F0D8F850B9102C58
:1006800008D2002221464FF0FF3000F0A7F8AC60FE
:10069000002032BD012032BD000000200C000020EF
:1006A000D3BBD9B1B2F5803F5BD2022A1ED98C46AA
:1006B000B1FBF2F102FB11C31B0443EA1043B3FB8D
:1006C000F2FC02FB1C3380B240EA0343B3FBF2F0BE
:1006D00002FB103240EA0C4000237047022A05D981
:1006E0008446B0FBF2F002FB10C270474AB105D15C
:1006F00000F0010249085FEA300070470022002341
:10070000704700F0B3B80B000200002100207047D2
:10071000F7D3002200237047904271EB030CF2D311
:1007200070B5B1FA81F4B3FA83F52C1BA340C4F180
:10073000200532FA05F63343A2405FF00046E6405A
:1007400002E05B085FEA3202841A71EB030524BF02
:10075000204629467641F4D302000B0030000021E8
:1007600070BD70B5B1FA81F4B2FA82F5C4F120041B
:100770006419B4F12006DAD3B2405FF00044F440CB
:10078000002502E052085FEA3303C61A71EB020E3D
:1007900024BF3046714664416D41F3D302000B0023
:1007A0002000290070BD00000901020002D4294880
:1007B00081547047284B02F00F021A4402F8041CBF
:1007C0007047264B4FF6FF021968000200F4E06004
:1007D00011400843224908431860704738B51F4B41
:1007E0001C68C4F30223C3F10704052C28BF0424AA
:1007F0001D1D072D34BF0023DB1E012505FA04F45F
:10080000641E2140994005FA03F35B1E1A40114310
:10081000BDE83440C8E7010007D4012200F01F0101
:100820008A40104B400943F820207047401EB0F129
:10083000807F10B501D3012010BD0B4C0F216060EB
:100840004FF0FF30FFF7B0FF00220721A260002029
:10085000216010BD00E400E018ED00E00CED00E0C8
:100860000000FA0500E100E010E000E07047000041
:100870002DE9F84702460B46002478480F211D68F1
:100880000127A74007EA0508B84540F0C6805D6823
:100890004FEA8409022D18BF122D11D1E50802EB91
:1008A000850C09F01C0501FA05F6DCF820E0D3F808
:1008B00010A02EEA06060AFA05F53543CCF82050BA
:1008C00015684FEA440C032606FA0CF66FEA060E8A
:1008D0001E790EEA050506F0030606FA0CF6354306
:1008E00015605D68012D18BF022D03D0112D18BFB2
:1008F000122D10D19568DE680EEA050506FA0CF691
:1009000035439560556825EA07075D68C5F300150E
:10091000A5402F435760D7680EEA07059F6807FA7E
:100920000CF63543D5605D68ED0076D50768DFF8D5
:1009300030C109F00C0901FA09F647F48047076055
:10094000056805F480450095009FA7085CF82750CE
:1009500025EA060E434DAA4208BF00252CD0424E80
:10096000B24208BF012527D0404DAA4208BF022548
:1009700022D03F4EB24208BF03251DD03D4DAA42B2
:1009800008BF042518D03C4EB24208BF052513D03D
:100990003A4DAA4208BF06250ED0394EB24208BFD2
:1009A000072509D0374DAA4208BF082504D0364E86
:1009B000B2420CBF09250A2505FA09F545EA0E05DC
:1009C0004CF82750314E35686FEA080707EA050CE6
:1009D0005D68ED0348BF48EA0C0CC6F800C07568B6
:1009E00007EA050C5D68AD0348BF48EA0C0CC6F881
:1009F00004C0B56807EA050C5D68ED0248BF48EA27
:100A00000C0CC6F808C0F56807EA050C5F68BD0263
:100A100048BF48EA0C0CC6F80CC0641C0F2C7FF6CB
:100A20002EAFBDE8F1870069084018BF0120C0B2B1
:100A3000704702B909048161704742690A408A42DD
:100A400008BF090481617047114A136803421CBF43
:100A5000106000F01FB870470000000044380240EA
:100A60000838014000000240000402400008024033
:100A7000000C024000100240001402400018024026
:100A8000001C02400020024000240240003C0140C3
:100A9000143C014010B5544C4FF400612046FFF760
:100AA000C2FF28B120460221BDE81040FFF7C5BFB4
:100AB00010BD10B586B000F0A1F800F04EF801A806
:100AC000142100F0A7F84948016841F002010160D3
:100AD000046804F00204009400990268424C42F059
:100AE00001020260036803F00103009300990268A9
:100AF00042F480720260036803F4807300930099EB
:100B0000026842F0800202600068002200F080006B
:100B10000090009920460221FFF78BFF022101225D
:100B200001910023029201A9039320460493FFF749
:100B30009FFE4FF400612E4A01910123029201A908
:100B400003932046FFF794FE032203212820FFF79A
:100B500045FE2820FFF75FFEFEE710B592B006A81D
:100B6000302100F057F801A8142100F053F8214873
:100B70004FF48033046844F080540460006800F04F
:100B80008050009000991C48026842F44042026084
:100B90000068012200F440400090009906924FF452
:100BA000800202210D920C9119210E914FF4D872FE
:100BB000022107930F9206A810911191FFF704FBF1
:100BC00000F02CF80F21022201914FF4A051029263
:100BD000002304914FF4805203930721059201A84A
:100BE000FFF77BFC12B010BD0020024030380240FD
:100BF00000001110403802400070004080B5032012
:100C0000FFF7DFFD0020FFF72BFD00F041F800208B
:100C100002BD0000002200F055B800007CB500F0D5
:100C200023F840F4803000F01CF806466068C103E9
:100C30000CD4FFF70FFD801BA842F7D3032076BD2D
:100C4000FFF708FD801BA84206D3F7E7206840F4B1
:100C5000003000F006F8064661688803F0D50020F1
:100C600076BD2060FFF7F6BC0848074C016840F2EB
:100C7000E93541F080510160006800F0805000903B
:100C80000099206870470000007000404038024022
:100C900082B00B48016841F080510160026802F0A7
:100CA000805200920099426842F48042426040685B
:100CB00000F4804000900099052002B0FFF781BD4C
:100CC0004038024000B500BF1300964694461039E4
:100CD00028BFA0E80C50FAD85FEA417C28BF0CC0BE
:100CE00048BF40F8042BC90728BF20F8022B48BF93
:100CF00000F8012B00BD000010B50E48002301686C
:100D000041F4700101600C490A680C4842F001028C
:100D10000A600B4A8B600C6804404FF000600C6066
:100D200000244A600B6823F480230B60CC600549E3
:100D3000086010BD88ED00E000380240FFFFF6FEBD
:100D40001030002408ED00E000000000000000006A
:100D5000010203040607080930B450F8041B79B1F6
:100D60000268436802440830DC0744BFA9F101046B
:100D7000E31852F8045B43F8045B091FF9D1ECE770
:100D800030BC704710B5074979441831064C7C4493
:100D9000163404E00A68081D114488470146A14240
:100DA000F8D110BD2C0000003C0000004EF6885128
:100DB000CEF20001086840F470000860BFF34F8F66
:100DC000BFF36F8F4FF00070E1EE100A7047000024
:100DD00089FFFFFF100000009000000000000020CD
:100DE0000000000000F00DF8002801D0FFF7CAFF56
:100DF000AFF300800020AFF30080FFF75AFE00F051
:100E000002F80120704700F001B80000074638469C
:100E100000F002F8FBE7000080B5AFF30080024A63
:100E200011001820ABBEFBE7260002007047FEE76A
:100E3000FEE7FEE7FEE770477047704700F004B832
:100E40004FF40060FFF700BE0248416802788A183C
:100E50004260704700000020014880470148004779
:100E6000F90C0008790E00080100000000000000E5
:100E7000100000000024F400AFF30080FFF796FF9D
:100E8000FFF7B0FFFFF7FEBFFFF7FEBFFFF7FEBFA4
:100E9000FFF7FEBFFFF7FEBFFFF7FEBFFFF7FEBF86
:100EA000FFF7FEBFFFF7FEBFFFF7FEBFFFF7FEBF76
:100EB000FFF7FEBFFFF7FEBFFFF7FEBFFFF7FEBF66
:100EC000FFF7FEBFFFF7FEBFFFF7FEBFFFF7FEBF56
:100ED000FFF7FEBFFFF7FEBFFFF7FEBFFFF7FEBF46
:100EE000FFF7FEBFFFF7FEBFFFF7FEBFFFF7FEBF36
:100EF000FFF7FEBFFFF7FEBFFFF7FEBFFFF7FEBF26
:100F0000FFF7FEBFFFF7FEBFFFF7FEBFFFF7FEBF15
:100F1000FFF7FEBFFFF7FEBFFFF7FEBFFFF7FEBF05
:100F2000FFF7FEBFFFF7FEBFFFF7FEBFFFF7FEBFF5
:100F3000FFF7FEBFFFF7FEBFFFF7FEBFFFF7FEBFE5
:100F4000FFF7FEBFFFF7FEBFFFF7FEBFFFF7FEBFD5
:100F5000FFF7FEBFFFF7FEBFFFF7FEBFFFF7FEBFC5
:100F6000FFF7FEBFFFF7FEBFFFF7FEBFFFF7FEBFB5
:100F7000FFF7FEBFFFF7FEBFFFF7FEBFFFF7FEBFA5
:100F8000FFF7FEBFFFF7FEBFFFF7FEBFFFF7FEBF95
:100F9000FFF7FEBFFFF7FEBFFFF7FEBFFFF7FEBF85
:100FA000FFF7FEBFFFF7FEBFFFF7FEBFFFF7FEBF75
:100FB000FFF7FEBFFFF7FEBFFFF7FEBFFFF7FEBF65
:100FC000FFF7FEBFFFF7FEBFFFF7FEBFFFF7FEBF55
:100FD000FFF7FEBFFFF7FEBFFFF7FEBFFFF7FEBF45
:100FE000FFF7FEBFFFF7FEBFFFF7FEBFFFF7FEBF35
:100FF000FFF7FEBFFFF7FEBFFFF7FEBFFFF7FEBF25
:04100000FFF7FEBF39
:0400000508000E7968
:00000001FF
