:020000040800F2
:1000000010040020690C0008B90A0008BB0A0008A7
:10001000BD0A0008BF0A0008C10A0008000000006D
:10002000000000000000000000000000C30A0008FB
:10003000C50A000800000000C70A0008C90A000835
:10004000950C0008990C00089D0C0008A10C0008F4
:10005000A50C0008A90C0008AD0C0008B10C0008A4
:10006000B50C0008CD0A0008F50A0008B90C000814
:10007000BD0C0008C10C0008C50C0008C90C000824
:10008000CD0C0008D10C0008D50C0008D90C0008D4
:10009000DD0C0008E10C0008E50C0008E90C000884
:1000A000ED0C0008F10C0008F50C0008F90C000834
:1000B000FD0C0008010D0008050D0008090D0008E1
:1000C0000D0D0008110D0008150D0008190D000890
:1000D0001D0D0008210D0008250D0008290D000840
:1000E0002D0D0008310D0008350D0008390D0008F0
:1000F0003D0D0008410D0008450D0008490D0008A0
:100100004D0D0008510D0008550D0008590D00084F
:100110005D0D0008610D0008650D0008690D0008FF
:100120006D0D0008710D0008750D0008790D0008AF
:100130002DE9F843040016D02078DFF85864C10791
:1001400013D5706800F00C00042807D0706800F028
:100150000C00082840D17068C1033DD53068810388
:1001600003D56068002800F0F4802078DFF834744C
:10017000810719D5706810F00C0F07D0706800F077
:100180000C00082860D17068C1035DD43068810715
:1001900003D52069012840F0DC803168606921F0D6
:1001A000F80141EAC00131602178080770D5A069E3
:1001B000DFF8F413002865D001220A6000F00AFA83
:1001C0000546706A810700F1C68000F003FA401B03
:1001D0000228F6D9032035E16068B0F5803F04D1EC
:1001E000306840F48030306014E008B930680AE0CC
:1001F000B0F5A02F306806D140F48020306031681F
:1002000041F4803105E020F480303060316821F421
:1002100080213160606858B100F0DCF90546306833
:100220008103A2D400F0D6F9401B6528F7D3D1E7AB
:1002300000F0D0F905463068810396D500F0CAF980
:10024000401B6528F7D3C5E7206970B101213960EB
:1002500000F0C0F905463068810700F1B68000F073
:10026000B9F9401B0228F6D9B4E7386000F0B2F9BA
:1002700005463168880797D500F0ACF9401B022885
:10028000F7D9A7E7086000F0A5F90546706A81076D
:1002900070D500F09FF9401B0228F7D99AE708B9FA
:1002A000306A09E00528306A06D140F00400306267
:1002B000306A40F0010005E0400840003062306ADA
:1002C00020F00400306241F28938E06868B100F043
:1002D00081F98146306A810700F1848000F07AF963
:1002E000A0EB09004045F5D374E700F073F98146AF
:1002F000306A810776D500F06DF9A0EB0900404522
:10030000F6D367E700F066F9401B02287BD961E766
:1003100000F060F9001B022840F28F805AE700F0DD
:1003200093F804463068810140F18B8000F052F967
:10033000001B0228F6D94DE701280AD07068226A0E
:1003400000F48031914202BF00F47010616A88426B
:1003500077D0012076E0DFF840020168C9084FF449
:100360007A72B1FBF2F2009200BF0098411E0028A1
:100370000091F9D12078410739D5F0690025C100F5
:1003800009D4F06940F08050F0610125F06900F077
:10039000805000900098DFF81482D8F80000C10562
:1003A0001BD4D8F8000040F48070C8F8000000F0BA
:1003B00011F98146D8F80000C1050ED400F00AF901
:1003C000A0EB09006528F5D304E73068616920F0E7
:1003D000F80040EAC1003060E6E6E06801287FF4FA
:1003E0005EAF65E71DB1F06920F08050F061E06913
:1003F00038B3716801F00C0108299DD002288ED114
:1004000000F022F80546306881013FF57BAF206A95
:10041000B0F5803F05D17168A06821F40031014337
:1004200071607268206A616A22F4741202430A439E
:100430007260012000F009F80446306881017FF500
:1004400067AF0020BDE8F2830020386600F0C2B834
:100450002DE9F0410400884672D0554E00F077F83F
:1004600002D200F06FF86BD120684A4D810712D597
:10047000400703D5696841F4E061696020780107AD
:1004800003D5686840F4605068606968A06821F02E
:10049000F001014369602178C80749D560680128E7
:1004A00002D129688A0303E00228296802D18A015F
:1004B00002D445E08A0743D56968890840EA81008B
:1004C000686000F087F807466868616800F00C0013
:1004D000B0EB810F2CD000F07DF8C01B41F28931C8
:1004E0008842F1D3032021E02078410705D56A68CE
:1004F000E06822F4E06202436A602178080706D5CA
:100500006968206921F4605141EAC001696000F026
:1005100023F86A682749204BC2F30312895CC8405C
:1005200018601F48006800F05BF80020BDE8F0810B
:10053000306800F007008045D6D200F003F8D3D031
:100540000120F3E73168C90848EAC1013160306829
:1005500000F0070040457047174910480A6802F04C
:100560000C03082B00D0704710B500BF14A4C2F3D1
:100570008343D203E35C08D50968584314A3C1F34D
:1005800040415A5CB0FBF2F010BD18460B4948439D
:1005900010BD0000001002400C00002000127A0084
:1005A00008000020000042428004424200700040E7
:1005B00000200240A80B00080410024000093D0082
:1005C00002030405060708090A0B0C0D0E0F101094
:1005D0000102000001484068704700BF0000002091
:1005E00038B50D4D0D4B2A7804464FF47A711868D2
:1005F000B1FBF2F2B0FBF2F000F054F850B9102C5D
:1006000008D2002221464FF0FF3000F023F8AC6002
:10061000002032BD012032BD000000200C0000206F
:100620000901020002D4294881547047284B02F086
:100630000F021A4402F8041C7047264B19684FF643
:10064000FF020002114000F4E06008432249084321
:100650001860704738B51F4B1C68C4F30223C3F100
:100660000704052C28BF04241D1D072D34BF0023BB
:10067000DB1E012505FA04F4641E2140994005FAA9
:1006800003F35B1E1A401143BDE83440C8E7010084
:1006900007D4012200F01F01104B8A40400943F8A3
:1006A0002020704710B5401EB0F1807F01D301209B
:1006B00010BD0B4C60600F214FF0FF30FFF7B0FF13
:1006C0000021A16007202060002010BD00E400E0B0
:1006D00018ED00E00CED00E00000FA0500E100E09C
:1006E00010E000E02DE9F8470027BE466F4A704B46
:1006F0004FF00F0882460BE0D6683040D06006E02D
:1007000094604C68A402F7D5D0680643D6607F1C7D
:100710000E6836FA07F000F0AD80012000FA07F508
:100720002E40AE42F3D1486858B301281AD00228AF
:100730001FD0032833D0112817D012281DD05D4CAC
:10074000A0421CBF5C4CA0421BD05C4CA0421CBF12
:100750005B4CA04215D05B4CA0421CBF5A4CA0423F
:100760000FD01EE0D1F80CE01BE0C86800F1040EC9
:1007700017E0C86800F1080E13E0C86800F10C0E1D
:100780000FE0886810B94FF0040E0AE001284FF01E
:10079000080E14BFCAF81450CAF8105001E04FF008
:1007A000000EB6F5807F03D250464FEA870C05E075
:1007B000A7F108040AF104004FEA840C046808FA5F
:1007C0000CF5AC430EFA0CF52C4304604868C000ED
:1007D0009DD51868DFF8F4C040F0010018601C686F
:1007E00004F001040094BC000098B8085CF82050A4
:1007F00004F00C0408FA04F925EA0909344DAA4565
:1008000008BF002518D0334DAA4508BF012513D0D5
:10081000314DAA4508BF02250ED0304DAA4508BF6C
:10082000032509D02E4DAA4508BF042504D02D4D1F
:10083000AA450CBF0525062505FA04F444EA090477
:100840004CF82040F0434C68E40314684CBF344338
:10085000044014604C68A40354684CBF3443044003
:1008600054604C689568E4024CBF46EA050400EA0F
:10087000050445E7BDE8F1878068084018BF0120FE
:10088000C0B2704702B9090401617047C2680A42E8
:1008900001D04161704701617047134A13680342F8
:1008A0001CBF106000F022B8704700000004014037
:1008B000181002400000111000001210000021105A
:1008C000000022100000311000003210080001402A
:1008D00000080140000C01400010014000140140DC
:1008E00000180140001C0140140401407047000042
:1008F00080B500F08DF800F003F800F022F8FEE774
:1009000018B58FB005A8282100F094F86846142186
:1009100000F090F8012109911022002102240A928E
:100920000C91059405A8FFF703FC0F20009000210F
:1009300001910291039104916846FFF789FD10B07F
:1009400010BD30B585B06846102100F073F8274817
:10095000274D046844F0400404600168254C01F010
:10096000400104910499026842F0040202600368A5
:1009700003F0040304930499026842F00802026041
:100980000022006800F0080004902021049820460E
:10099000FFF778FF002220212846FFF773FF182079
:1009A0001549009001910122029269462046FFF705
:1009B00099FE00F023F82046FFF794FE00F01EF8A1
:1009C0002846FFF78FFE032203210920FFF742FE8E
:1009D0000920FFF75CFE032203210A20FFF73AFEFD
:1009E0000A20FFF754FE05B030BD00001810024089
:1009F000000C01400018014000001110202100915E
:100A0000012201920021029102220392694670475D
:100A100080B50748016841F0100101600320FFF72D
:100A20000CFE0020FFF7DCFD00F008F8002002BDFE
:100A300000200240002200F025B8000080B50F48D9
:100A4000016841F001010160026802F001020092B8
:100A50000099426842F080524260406800F0805045
:100A6000009000980520FFF7E8FD0548016821F097
:100A7000E06141F08071016001BD00BF18100240CB
:100A80000400014000B500BF13009646944610399B
:100A900028BFA0E80C50FAD85FEA417C28BF0CC000
:100AA00048BF40F8042BC90728BF20F8022B48BFD5
:100AB00000F8012B00BD00007047FEE7FEE7FEE7EF
:100AC000FEE770477047704700F02CB810B508205B
:100AD000FFF7E3FE0A2000F02DF8104C0821204615
:100AE000FFF7CAFE28B12046BDE810402021FFF7DD
:100AF000CDBE10BD80B51020FFF7CFFE0A2000F05C
:100B000019F810210548FFF7B7FE28B1BDE80440E9
:100B100020210348FFF7BABE01BD000000180140C4
:100B2000000C014002494A68087882184A60704700
:100B30000000002038B50446FFF74CFD14F1010F0A
:100B4000054602D0044908780419FFF743FD401B0D
:100B5000A042FAD331BD00BF0000002010B50E4AFC
:100B60000E49106840F00100106053680C480B40BB
:100B70005360146804401460116821F480211160EE
:100B80004FF41F01506820F4FE00506091604FF058
:100B90000060044A106010BD001002400000FFF821
:100BA000FFFFF6FE08ED00E000000000000000007E
:100BB000010203040607080930B450F8041B79B198
:100BC0000268436802440830DC0744BFA9F101040D
:100BD000E31852F8045B43F8045B091FF9D1ECE712
:100BE00030BC704710B5074979441831064C7C4435
:100BF000163404E00A68081D114488470146A142E2
:100C0000F8D110BD0800000018000000ADFFFFFF84
:100C10001000000064000000000000200000000040
:100C200000F00DF8002801D0FFF7DCFFAFF30080E3
:100C30000020AFF30080FFF75BFE00F002F8012018
:100C4000704700F001B800000746384600F002F88F
:100C5000FBE7000080B5AFF30080024A11001820C6
:100C6000ABBEFBE726000200014880470148004771
:100C70005D0B0008890C0008010000000000000066
:100C8000100000000024F400AFF30080AFF30080F8
:100C9000FFF7C6FFFFF7FEBFFFF7FEBFFFF7FEBF80
:100CA000FFF7FEBFFFF7FEBFFFF7FEBFFFF7FEBF78
:100CB000FFF7FEBFFFF7FEBFFFF7FEBFFFF7FEBF68
:100CC000FFF7FEBFFFF7FEBFFFF7FEBFFFF7FEBF58
:100CD000FFF7FEBFFFF7FEBFFFF7FEBFFFF7FEBF48
:100CE000FFF7FEBFFFF7FEBFFFF7FEBFFFF7FEBF38
:100CF000FFF7FEBFFFF7FEBFFFF7FEBFFFF7FEBF28
:100D0000FFF7FEBFFFF7FEBFFFF7FEBFFFF7FEBF17
:100D1000FFF7FEBFFFF7FEBFFFF7FEBFFFF7FEBF07
:100D2000FFF7FEBFFFF7FEBFFFF7FEBFFFF7FEBFF7
:100D3000FFF7FEBFFFF7FEBFFFF7FEBFFFF7FEBFE7
:100D4000FFF7FEBFFFF7FEBFFFF7FEBFFFF7FEBFD7
:100D5000FFF7FEBFFFF7FEBFFFF7FEBFFFF7FEBFC7
:100D6000FFF7FEBFFFF7FEBFFFF7FEBFFFF7FEBFB7
:0C0D7000FFF7FEBFFFF7FEBFFFF7FEBF5E
:0400000508000C895A
:00000001FF
