:020000040800F2
:10000000680400204D110008D5100008D710000822
:10001000D9100008DB100008DD1000080000000007
:10002000000000000000000000000000DF100008D9
:10003000E110000800000000E3100008E5100008CF
:100040008111000885110008891100088D11000830
:100050009111000895110008991100089D110008E0
:10006000A1110008A5110008A9110008AD11000890
:10007000B1110008B5110008B9110008BD11000840
:10008000C1110008C5110008C9110008CD110008F0
:10009000D1110008D5110008D9110008DD110008A0
:1000A000E1110008E5110008E9110008ED11000850
:1000B000F1110008F5110008F9110008FD11000800
:1000C0000112000805120008091200080D120008AC
:1000D00011120008E9100008151200081912000892
:1000E0001D1200082112000825120008291200081C
:1000F0002D120008311200083512000839120008CC
:100100003D1200084112000845120008491200087B
:100110004D1200085112000855120008591200082B
:100120005D120008611200086512000869120008DB
:100130002DE9F843040016D02078DFF87C64C1076D
:1001400013D5706800F00C00042807D0706800F028
:100150000C00082840D17068C1033DD53068810388
:1001600003D56068002800F0F4802078DFF8587428
:10017000810719D5706810F00C0F07D0706800F077
:100180000C00082860D17068C1035DD43068810715
:1001900003D52069012840F0DC803168606921F0D6
:1001A000F80141EAC00131602178080770D5A069E3
:1001B000DFF81814002865D001220A6000F03AFA2E
:1001C0000546706A810700F1C68000F033FA401BD3
:1001D0000228F6D9032035E16068B0F5803F04D1EC
:1001E000306840F48030306014E008B930680AE0CC
:1001F000B0F5A02F306806D140F48020306031681F
:1002000041F4803105E020F480303060316821F421
:1002100080213160606858B100F00CFA0546306802
:100220008103A2D400F006FA401B6528F7D3D1E77A
:1002300000F000FA05463068810396D500F0FAF91F
:10024000401B6528F7D3C5E7206970B101213960EB
:1002500000F0F0F905463068810700F1B68000F043
:10026000E9F9401B0228F6D9B4E7386000F0E2F95A
:1002700005463168880797D500F0DCF9401B022855
:10028000F7D9A7E7086000F0D5F90546706A81073D
:1002900070D500F0CFF9401B0228F7D99AE708B9CA
:1002A000306A09E00528306A06D140F00400306267
:1002B000306A40F0010005E0400840003062306ADA
:1002C00020F00400306241F28938E06868B100F043
:1002D000B1F98146306A810700F1848000F0AAF903
:1002E000A0EB09004045F5D374E700F0A3F981467F
:1002F000306A810776D500F09DF9A0EB09004045F2
:10030000F6D367E700F096F9401B02287BD961E736
:1003100000F090F9001B022840F28F805AE700F0AD
:1003200093F804463068810140F18B8000F082F937
:10033000001B0228F6D94DE701280AD07068226A0E
:1003400000F48031914202BF00F47010616A88426B
:1003500077D0012076E0DFF864020168C9084FF425
:100360007A72B1FBF2F2009200BF0098411E0028A1
:100370000091F9D12078410739D5F0690025C100F5
:1003800009D4F06940F08050F0610125F06900F077
:10039000805000900098DFF83882D8F80000C1053E
:1003A0001BD4D8F8000040F48070C8F8000000F0BA
:1003B00041F98146D8F80000C1050ED400F03AF9A1
:1003C000A0EB09006528F5D304E73068616920F0E7
:1003D000F80040EAC1003060E6E6E06801287FF4FA
:1003E0005EAF65E71DB1F06920F08050F061E06913
:1003F00038B3716801F00C0108299DD002288ED114
:1004000000F022F80546306881013FF57BAF206A95
:10041000B0F5803F05D17168A06821F40031014337
:1004200071607268206A616A22F4741202430A439E
:100430007260012000F009F80446306881017FF500
:1004400067AF0020BDE8F2830020386600F0F2B804
:100450002DE9F0410400884672D05E4E00F077F836
:1004600002D200F06FF86BD12068534D810712D58E
:10047000400703D5696841F4E061696020780107AD
:1004800003D5686840F4605068606968A06821F02E
:10049000F001014369602178C80749D560680128E7
:1004A00002D129688A0303E00228296802D18A015F
:1004B00002D445E08A0743D56968890840EA81008B
:1004C000686000F0B7F807466868616800F00C00E3
:1004D000B0EB810F2CD000F0ADF8C01B41F2893198
:1004E0008842F1D3032021E02078410705D56A68CE
:1004F000E06822F4E06202436A602178080706D5CA
:100500006968206921F4605141EAC001696000F026
:1005100023F86A683049294BC2F30312895CC8404A
:1005200018602848006800F08BF80020BDE8F081D2
:10053000306800F007008045D6D200F003F8D3D031
:100540000120F3E73168C90848EAC1013160306829
:1005500000F0070040457047204919480A6802F03A
:100560000C03082B00D0704710B500BF1EA4C2F3C7
:100570008343D203E35C08D5096858431EA3C1F343
:1005800040415A5CB0FBF2F010BD18461449484394
:1005900010BD0A48114A006813681249C3F30222C9
:1005A00006E006480D4A006813680E49C3F3C222EC
:1005B000895CC84070470000001002400C00002019
:1005C00000127A00080000200000424280044242EB
:1005D00000700040002002404C100008041002404F
:1005E00000093D0078110008020304050607080908
:1005F0000A0B0C0D0E0F1010010230B4002513E091
:1006000050F8042BD30744BFA9F101039A18091F1E
:10061000042942F8045BFAD213468C0744BF1580C4
:100620009B1CC90748BF1D7050F8041B0029E7D167
:1006300030BC704701484068704700BF0000002090
:1006400038B50D4D0D4B2A7804464FF47A71186871
:10065000B1FBF2F2B0FBF2F000F054F850B9102CFC
:1006600008D2002221464FF0FF3000F023F8AC60A2
:10067000002032BD012032BD000000200C0000200F
:100680000901020002D4294881547047284B02F026
:100690000F021A4402F8041C7047264B19684FF6E3
:1006A000FF020002114000F4E060084322490843C1
:1006B0001860704738B51F4B1C68C4F30223C3F1A0
:1006C0000704052C28BF04241D1D072D34BF00235B
:1006D000DB1E012505FA04F4641E2140994005FA49
:1006E00003F35B1E1A401143BDE83440C8E7010024
:1006F00007D4012200F01F01104B8A40400943F843
:100700002020704710B5401EB0F1807F01D301203A
:1007100010BD0B4C60600F214FF0FF30FFF7B0FFB2
:100720000021A16007202060002010BD00E400E04F
:1007300018ED00E00CED00E00000FA0500E100E03B
:1007400010E000E038B5040001D1012032BD00F016
:1007500021F808B900F022F800F012F800F023F8B0
:10076000FFE7416100F001F832BD2068C16841F443
:100770000051C1600020686020216970A970704735
:10078000242068702068C16821F40051C1602046AF
:1007900000F069B904F138056878704700212970C4
:1007A000204600F0BEB92068016921F49041016142
:1007B0002068416921F02A01704710B500F1380323
:1007C0005C78202C18D109B1140001D1012010BD92
:1007D0001C78012C10D001241C7001628284C28418
:1007E0000021596021225A7019700068C26842F0D5
:1007F0008002C260002010BD022010BD10B500F1C3
:1008000038039C78202C22D109B1140001D1012099
:1008100010BD1C78012C1AD001241C7081628285C5
:10082000C2850021596022229A7019700168CA6835
:1008300042F48072CA6001684A6942F001024A616A
:100840000068C16841F02001C160002010BD022095
:1008500010BD416921F040014161606B704738B5BE
:10086000044625682968EA686B6911F00F0007D112
:1008700088065DD593065BD52046BDE83240A9E0E9
:10088000D80702D412F4907F52D0C80705D5D505F9
:1008900003D5E06B40F00100E063480705D5DD07B4
:1008A00003D5E06B40F00200E063880705D5DD0763
:1008B00003D5E06B40F00400E063080705D5DB07D3
:1008C00003D5E06B40F00800E063E06B00286CD0DB
:1008D000880604D5910644BF204600F07BF82068C6
:1008E0004069E16B0A0701D440061BD5204600F0A1
:1008F0005DF8206841694A060FD5FFF7AAFF60B18D
:100900000FF2C5014163606B00F052F900284CD032
:10091000606B416BBDE8344008472046BDE832407B
:1009200000F0CEB9204600F0CBF90020E06331BDE5
:1009300008062AD5130628D594F83900212834D181
:10094000A068B0F5805F206A0BD10188C1F308016F
:10095000696020690028206A0CBF811C411C21624B
:1009600003E0411C216200786860E08C401EE08456
:1009700080B2D0B92068C16821F08001C1602068D0
:10098000C16841F04001C16031BD48060DD5510636
:100990000BD5E86820F04000E860202184F8391089
:1009A0002046BDE8324000F08CB931BD0168CA680C
:1009B00022F49072CA6001684A69520852004A6182
:1009C000202180F83A107047406A0021C185C18417
:1009D00000F076B980B590F83A10222941D18168AB
:1009E000B1F5805F12D101690368826A00295968F4
:1009F00005D1C1F308011180826A911C04E001F065
:100A0000FF011180826A511C81620FE00169002997
:100A1000816A04D14A1C826203685A6805E04A1C54
:100A2000826203685A6802F07F020A70C18D491E13
:100A3000C18589B299B90168CA6822F02002CA60EA
:100A40000168CA6822F48072CA6001684A69520863
:100A500052004A61202180F83A1000F033F900205A
:100A600002BD022002BD70B50446642522681169EA
:100A7000E06821F44051014311611926D3681849F7
:100A8000A0680B402169034360690B430343D360B3
:100A90005169A06921F440710143124851618242B9
:100AA00002D1FFF77EFD01E0FFF773FD464360686A
:100AB0008000B6FBF0F06421B0FBF1F105FB1105FD
:100AC0002D0132356420B5FBF0F000F0F00202EBAE
:100AD0000112216800F00F008018886070BD0000CE
:100AE000F3E9FFFF003801402D4881B0016841F073
:100AF00001010160026802F001020092009942685F
:100B000042F080524260406800F0805000900098AF
:100B10002448016821F0E06141F08071016001B07A
:100B2000704730B585B0044601A8102100F044F9A3
:100B300024681D4DAC4230D119481C4C016841F469
:100B400080410160026802F48042009200990268CC
:100B500042F0040202604FF40071006800F00400EB
:100B600000900222009801910292032104912046F4
:100B700001A900F025F94FF4806000210190029155
:100B80000391204601A900F01BF900220021252035
:100B9000FFF790FD2520FFF7AAFD05B030BD00004E
:100BA00018100240040001400038014000080140D4
:100BB000F8B590F821200024022A00F1340103D076
:100BC0000420486001245FE00268DFF8C460136815
:100BD00023F00E0313604FF48077026815686D08E8
:100BE0006D0015604FF480320368B3424FF48055B6
:100BF00019D9DFF89860B34208BF012210D0DFF89E
:100C00009460B34208BF10220AD0DFF88C60B34270
:100C100008BF3A4604D0DFF88470BB4208BF2A46BA
:100C2000DFF87C3027E0DFF87CC063451CD0DFF8BC
:100C300078E073451AD0DFF874C0634518D0DFF848
:100C40007070BB420EBF2A46DFF86850AB4210D02E
:100C5000DFF86470BB4208BF4FF4801209D0B34282
:100C600007D14FF0807204E0012202E0102200E080
:100C70003A46DFF848301A60012280F8212080F8D7
:100C80002040096801B188472046F2BD08040240AF
:100C9000800002401C040240300402404404024030
:100CA00004040240080002401C00024030000240E0
:100CB00044000240580002406C0002400400024020
:100CC0007047704724480A2200F14001FFF775BDC4
:100CD0001FB500F05DF900F045F820481E4C016892
:100CE00041F010010160026802F0100200920099C8
:100CF000026842F004020260036803F004030093F8
:100D000000990268164942F0080202604FF4E1328D
:100D1000006800F008000090009821600020A060AA
:100D2000E06020610C21A061E061626061612046A9
:100D3000FFF708FD4FEA0D001BA1102200F03AF961
:100D40000E2269462046FFF738FD142204F14001C7
:100D50002046FFF753FDFEE7100000201810024068
:100D60000038014018B58FB005A8282100F024F8FC
:100D70006846142100F020F8012109911022002179
:100D800002240A920C91059405A8FFF7D1F90F20CF
:100D90000090002101910291039104916846FFF7B0
:100DA00057FB10B010BD000068656C6C6F20776F4A
:100DB000726C64210A000000002200F007B90000F4
:100DC0002DE9F8470027BE46624A634B4FF00F08F3
:100DD00082460BE0D6683040D06006E094604C68F4
:100DE000A402F7D5D0680643D6607F1C0E6836FA99
:100DF00007F000F0AD80012000FA07F52E40AE426A
:100E0000F3D1486858B301281AD002281FD003280C
:100E100033D0112817D012281DD0504CA0421CBF2F
:100E20004F4CA0421BD04F4CA0421CBF4E4CA04286
:100E300015D04E4CA0421CBF4D4CA0420FD01EE01E
:100E4000D1F80CE01BE0C86800F1040E17E0C86898
:100E500000F1080E13E0C86800F10C0E0FE088687E
:100E600010B94FF0040E0AE001284FF0080E14BF2D
:100E7000CAF81450CAF8105001E04FF0000EB6F551
:100E8000807F03D250464FEA870C05E0A7F10804A3
:100E90000AF104004FEA840C046808FA0CF5AC432C
:100EA0000EFA0CF52C4304604868C0009DD5186804
:100EB000DFF8C0C040F0010018601C6804F00104B5
:100EC0000094BC000098B8085CF8205004F00C04B2
:100ED00008FA04F925EA0909274DAA4508BF0025A3
:100EE00018D0264DAA4508BF012513D0244DAA4588
:100EF00008BF02250ED0234DAA4508BF032509D0FF
:100F0000214DAA4508BF042504D0204DAA450CBF99
:100F10000525062505FA04F444EA09044CF82040A6
:100F2000F0434C68E40314684CBF3443044014603D
:100F30004C68A40354684CBF3443044054604C686C
:100F40009568E4024CBF46EA050400EA050445E75B
:100F5000BDE8F187000401401810024000001110A4
:100F600000001210000021100000221000003110BB
:100F7000000032100800014000080140000C014050
:100F8000001001400014014000180140001C014005
:100F900080B50748016841F0100101600320FFF7A8
:100FA0007CFB0020FFF74CFBFFF79EFD002002BDFD
:100FB000002002404AB1000011F8013B521E00F827
:100FC000013B1CBF11F8013BF8E7704700B500BFBB
:100FD000130096469446103928BFA0E80C50FAD862
:100FE0005FEA417C28BF0CC048BF40F8042BC9070A
:100FF00028BF20F8022B48BF00F8012B00BD0000DD
:1010000010B50E4A0E49106840F001001060536898
:101010000C480B405360146804401460116821F4BC
:10102000802111604FF41F01506820F4FE005060D1
:1010300091604FF00060044A106010BD0010024043
:101040000000FFF8FFFFF6FE08ED00E000000000E2
:1010500000000000010203040607080930B450F83C
:10106000041B79B10268436802440830DC0744BFBE
:10107000A9F10104E31852F8045B43F8045B091F6B
:10108000F9D1ECE730BC704710B507497944183105
:10109000064C7C44163404E00A68081D1144884755
:1010A0000146A142F8D110BD080000002800000050
:1010B0004BF5FFFF5400000010000020000000006E
:1010C0009DFFFFFF100000009400000000000020C2
:1010D000000000007047FEE7FEE7FEE7FEE770470E
:1010E0007047704700F006B80148FFF7B8BB000032
:1010F0001000002002494A68087882184A60704748
:101100000000002000F00DF8002801D0FFF7BCFF20
:10111000AFF300800020AFF30080FFF7D9FD00F0AF
:1011200002F80120704700F001B800000746384679
:1011300000F002F8FBE7000080B5AFF30080024A40
:1011400011001820ABBEFBE72600020001488047D3
:1011500001480047011000086D110008010000005F
:1011600000000000100000000024F400AFF3008035
:10117000AFF30080FFF7C6FF000000000102030488
:10118000FFF7FEBFFFF7FEBFFFF7FEBFFFF7FEBF93
:10119000FFF7FEBFFFF7FEBFFFF7FEBFFFF7FEBF83
:1011A000FFF7FEBFFFF7FEBFFFF7FEBFFFF7FEBF73
:1011B000FFF7FEBFFFF7FEBFFFF7FEBFFFF7FEBF63
:1011C000FFF7FEBFFFF7FEBFFFF7FEBFFFF7FEBF53
:1011D000FFF7FEBFFFF7FEBFFFF7FEBFFFF7FEBF43
:1011E000FFF7FEBFFFF7FEBFFFF7FEBFFFF7FEBF33
:1011F000FFF7FEBFFFF7FEBFFFF7FEBFFFF7FEBF23
:10120000FFF7FEBFFFF7FEBFFFF7FEBFFFF7FEBF12
:10121000FFF7FEBFFFF7FEBFFFF7FEBFFFF7FEBF02
:10122000FFF7FEBFFFF7FEBFFFF7FEBFFFF7FEBFF2
:10123000FFF7FEBFFFF7FEBFFFF7FEBFFFF7FEBFE2
:10124000FFF7FEBFFFF7FEBFFFF7FEBFFFF7FEBFD2
:10125000FFF7FEBFFFF7FEBFFFF7FEBFFFF7FEBFC2
:0C126000FFF7FEBFFFF7FEBFFFF7FEBF69
:040000050800116D71
:00000001FF
