:020000040800F2
:100000002006002029170008891500088B15000814
:100010008D1500088F1500089115000800000000DC
:100020000000000000000000000000009315000820
:1000300095150008000000009715000899150008A4
:100040005D170008611700086517000869170008A8
:100050006D17000871170008751700087917000858
:100060007D17000881170008851700088917000808
:100070008D170008911700089D150008A3150008AA
:1000800095170008991700089D170008A117000888
:10009000A5170008A9170008AD170008B117000838
:1000A000B5170008B9170008BD170008C1170008E8
:1000B000C5170008C9170008CD170008D117000898
:1000C000D5170008D9170008DD170008E117000848
:1000D000E5170008A9150008E9170008ED17000842
:1000E000F1170008F5170008F9170008FD170008B8
:1000F0000118000805180008091800080D18000864
:100100001118000815180008191800081D18000813
:100110002118000825180008291800082D180008C3
:100120003118000835180008391800083D18000873
:1001300038B5040001D1012032BD00F021F808B922
:1001400000F022F800F012F800F023F8FFE7416118
:1001500000F001F832BD2068C16841F40051C1606F
:100160000020686020216970A970704724206870A1
:100170002068C16821F40051C160204600F035BA02
:1001800004F138056878704700212970204600F096
:100190008CBA2068016921F49041016120684169AD
:1001A00021F02A01704770B5044604F13805134662
:1001B0006878202831D109B1180001D1012070BD23
:1001C0002878012829D0012028702162A384E384A3
:1001D0000020686021226A700FF28520226B9062F5
:1001E000226B0FF2A920D062226B0FF2E92010637C
:1001F0000020266B70632068021D206B00F00EFB50
:1002000021686FF04000086000222A702068416970
:1002100041F080014161002070BD022070BD7CB5BD
:10022000044604F138051346A87820283ED109B1C8
:10023000180001D1012076BD2878012836D0012090
:100240002870A162A38500226A602220A87000267F
:10025000606B0FF241228262606B0FF27122C26208
:10026000606B0FF2712202630A46606B4663266878
:10027000606B311D00F0D2FA0020009021680A68FE
:10028000009200224B68009300982A70CB6843F4D8
:100290008073CB602068416941F0010141612068B1
:1002A000416941F040014161002076BD022076BDE8
:1002B00038B5044604F13905206841692A78212AB5
:1002C0000CD109060AD5426922F080024261206BF6
:1002D00008B100F0DDFA204600F021F920684169FC
:1002E0006A78222A0CD149060AD5426922F04002D6
:1002F0004261606B08B100F0CBFA204600F018F9BB
:10030000002032BD416921F040014161606B7047BE
:1003100038B5044625682968EA686B6911F00F0052
:1003200007D188065DD593065BD52046BDE83240EF
:1003300012E1D80702D412F4907F52D0C80705D535
:10034000D50503D5E06B40F00100E063480705D513
:10035000DD0703D5E06B40F00200E063880705D5B8
:10036000DD0703D5E06B40F00400E063080705D526
:10037000DB0703D5E06B40F00800E063E06B00288A
:100380006CD0880604D5910644BF204600F0E4F8FE
:1003900020684069E16B0A0701D440061BD520465E
:1003A00000F0C6F8206841694A060FD5FFF7AAFF9A
:1003B00060B10FF299114163606B00F08EFA002872
:1003C0004CD0606B416BBDE8344008472046BDE827
:1003D000324000F002BC204600F0FFFB0020E0634A
:1003E00031BD08062AD5130628D594F839002128EE
:1003F00034D1A068B0F5805F206A0BD10188C1F3C9
:100400000801696020690028206A0CBF811C411C1A
:10041000216203E0411C216200786860E08C401E8C
:10042000E08480B2D0B92068C16821F08001C16049
:100430002068C16841F04001C16031BD48060DD55A
:1004400051060BD5E86820F04000E860202184F8D0
:1004500039102046BDE8324000F0C0BB31BD00007D
:10046000416A00680268930644BF084600F0B6BBC4
:100470000020C8840868426922F08002426108684E
:10048000C16841F04001C16070470000406A00F05F
:10049000A6BB0000416A00680268930613D40020DE
:1004A000C8850868C26822F48072C2600868426920
:1004B0005208520042610868426922F040024261DB
:1004C000202081F83A00084600F08ABB406A00F01C
:1004D00088BB000038B5446A2068406904F13905DA
:1004E0002978212906D1010604D50022E28420467C
:1004F00000F015F8216848696978222906D140067C
:1005000004D50021E185204600F012F8E06B40F0B0
:100510001000E0632046BDE8324000F05EBB016899
:10052000CA6822F0C002CA60202180F839107047E2
:100530000168CA6822F49072CA6001684A69520868
:1005400052004A61202180F83A107047406A002129
:10055000C185C18400F041BB80B590F83A102229D2
:1005600041D18168B1F5805F12D101690368826A67
:100570000029596805D1C1F308011180826A911CD4
:1005800004E001F0FF011180826A511C81620FE0DA
:1005900001690029816A04D14A1C826203685A6891
:1005A00005E04A1C826203685A6802F07F020A7002
:1005B000C18D491EC18589B299B90168CA6822F006
:1005C0002002CA600168CA6822F48072CA600168A9
:1005D0004A69520852004A61202180F83A1000F01E
:1005E000FFFA002002BD022002BD70B5044664255A
:1005F00022681169E06821F4405101431161192614
:10060000D3681849A0680B402169034360690B4314
:100610000343D3605169A06921F44071014312483A
:100620005161824202D100F016FD01E000F00BFDA5
:10063000464360688000B6FBF0F06421B0FBF1F146
:1006400005FB11052D0132356420B5FBF0F000F0FB
:10065000F00202EB0112216800F00F0080188860A0
:1006600070BD0000F3E9FFFF0038014080B5444849
:10067000016841F001010160026802F0010200928C
:100680000099426842F080524260406800F0805019
:1006900000900098052000F034FD3A48016821F0F0
:1006A000E06141F08071016001BD78B585B004461C
:1006B00001A8102100F07AFD2568334EB5425DD1C6
:1006C0002F48324D0168324E41F48041016002688A
:1006D00002F4804200920099026842F00402026033
:1006E0004FF40071006800F00400009002220098AE
:1006F0000191029203210491284601A900F05AFDBC
:100700004FF480600021019002910122039201A91F
:10071000284600F04FFD1F4D05F114003060002108
:100720008020F0607160B160316100207061202133
:10073000F061B161304600F031F808B100F0D1FE4F
:100740001020666374620021134E70608020F06098
:10075000B16031617161B161F1613560304600F0C5
:100760001DF808B100F0BDFE26637462002201216D
:10077000252000F0D3FC252000F0EDFC06B070BD74
:1007800018100240040001400038014000080140F8
:1007900058010020440002409C01002070B508B9B7
:1007A000012070BD0368DFF8CC53AB4200F1380480
:1007B0000BD2DFF8C413CA181426B2FBF6F292006B
:1007C000DFF8B853A26065600AE0DFF8B413CA1816
:1007D0001425B2FBF5F29200DFF8A813A260616065
:1007E000022280F821201D68416882686FF30D1590
:1007F0000D43C168154302690D4341691543826980
:100800000D43C16915430D431D6000232360012280
:1008100080F8212080F82030002070BDF8B5044613
:10082000002594F82000012801D10220F2BD94F89F
:1008300021600120012E84F8200024D1022004F13F
:100840002C0684F82100F560206807687F087F0087
:100850000760204600F0B0F92168306820B10A68CE
:1008600042F00E020A6008E0086820F00400086008
:100870002068016841F00A0101602068016841F0C8
:100880000101016002E084F8205002252846F2BDF3
:1008900010B590F82110022900F1380206D0042387
:1008A0001360002180F82010012010BD01680B6842
:1008B00023F00E030B60012301680C6864086400D8
:1008C0000C60916852688B4053600121002280F8CF
:1008D000211080F82020002010BDF8B590F82120CC
:1008E0000024022A00F1340103D0042048600124CE
:1008F0005FE00268DFF89062136823F00E03136074
:100900004FF48077026815686D086D0015604FF42C
:1009100080320368B3424FF4805519D9DFF854622E
:10092000B34208BF012210D0DFF86062B34208BFB3
:1009300010220AD0DFF85862B34208BF3A4604D00A
:10094000DFF85072BB4208BF2A46DFF84C3227E07E
:10095000DFF848C263451CD0DFF844E273451AD083
:10096000DFF840C2634518D0DFF83C72BB420EBFCF
:100970002A46DFF83852AB4210D0DFF83472BB425F
:1009800008BF4FF4801209D0B34207D14FF08072F4
:1009900004E0012202E0102200E03A46DFF81432BF
:1009A0001A60012280F8212080F82040096801B1F6
:1009B00088472046F2BD2DE9F84F00F128020427B0
:1009C0005169714E0B680468DFF8D0B125689169F0
:1009D000DFF8C4C1DFF8BCE1DFF8B481DFF8AC9127
:1009E000DFF890A18DF800109DF800108F403B4279
:1009F0004AD0690748D52368990603D4236823F0B1
:100A0000040323604FF480230168B1424FF4804413
:100A10004FF4806511D9514508BF04230AD04945D8
:100A200008BF402306D0414508BF2B4602D0714580
:100A300008BF2346CCF8003020E0594517D0584F66
:100A4000B94216D0574FB94215D0574DA9420EBFE3
:100A50002346564CA1420FD0554DA94208BF4FF432
:100A6000800309D0B14207D14FF0806304E0042332
:100A700002E0402300E02B464E490B6051680029FC
:100A800075D0BDE8F44F08479DF8001002278F404D
:100A90003B424FD0A9074DD52368990606D4236859
:100AA00023F00A032360012180F821104FF4003362
:100AB0000168B1424FF400544FF4007511D951450B
:100AC00008BF02230AD0494508BF202306D041456C
:100AD00008BF2B4602D0714508BF2346CCF8003032
:100AE00020E0594517D02E4FB94216D02D4FB942AC
:100AF00015D02D4DA9420EBF23462C4CA1420FD03C
:100B00002B4DA94208BF4FF4001309D0B14207D1C1
:100B10004FF0007304E0022302E0202300E02B46A4
:100B200024490B60002380F820301168F9B1BDE83A
:100B3000F44F08479DF8001008268E40334216D027
:100B4000290714D5236823F00E032360012491693B
:100B500053698C405C600121116180F821100021F3
:100B600080F82010916811B1BDE8F44F0847BDE846
:100B7000F18F000008040240F8FFFDBF00000240B2
:100B8000F8FBFDBF00040240800002401C0402404C
:100B900030040240440402400404024008000240C1
:100BA0001C00024030000240440002405800024055
:100BB0006C0002400400024070B5046CC66B012555
:100BC000A5407560046863604068102802D1A26087
:100BD000E16070BDA160E26070BD70477047704712
:100BE000704770472DE9F843040016D02078DFF8ED
:100BF0007C64C10713D5706800F00C00042807D08E
:100C0000706800F00C00082840D17068C1033DD521
:100C10003068810303D56068002800F0F4802078F4
:100C2000DFF85874810719D5706810F00C0F07D0E1
:100C3000706800F00C00082860D17068C1035DD4B2
:100C40003068810703D52069012840F0DC803168D5
:100C5000606921F0F80141EAC0013160217808079C
:100C600070D5A069DFF81814002865D001220A6049
:100C700000F038FC0546706A810700F1C68000F07C
:100C800031FC401B0228F6D9032035E16068B0F53D
:100C9000803F04D1306840F48030306014E008B9FF
:100CA00030680AE0B0F5A02F306806D140F480200B
:100CB0003060316841F4803105E020F480303060EC
:100CC000316821F480213160606858B100F00AFC7D
:100CD000054630688103A2D400F004FC401B65285F
:100CE000F7D3D1E700F0FEFB05463068810396D5C7
:100CF00000F0F8FB401B6528F7D3C5E7206970B109
:100D00000121396000F0EEFB05463068810700F1F3
:100D1000B68000F0E7FB401B0228F6D9B4E7386044
:100D200000F0E0FB05463168880797D500F0DAFB54
:100D3000401B0228F7D9A7E7086000F0D3FB05465F
:100D4000706A810770D500F0CDFB401B0228F7D9EF
:100D50009AE708B9306A09E00528306A06D140F000
:100D600004003062306A40F0010005E040084000B5
:100D70003062306A20F00400306241F28938E06865
:100D800068B100F0AFFB8146306A810700F18480D2
:100D900000F0A8FBA0EB09004045F5D374E700F094
:100DA000A1FB8146306A810776D500F09BFBA0EB62
:100DB00009004045F6D367E700F094FB401B02288A
:100DC0007BD961E700F08EFB001B022840F28F8088
:100DD0005AE700F093F804463068810140F18B80B7
:100DE00000F080FB001B0228F6D94DE701280AD04D
:100DF0007068226A00F48031914202BF00F47010E2
:100E0000616A884277D0012076E0DFF864020168E9
:100E1000C9084FF47A72B1FBF2F2009200BF009859
:100E2000411E00280091F9D12078410739D5F06999
:100E30000025C10009D4F06940F08050F06101251F
:100E4000F06900F0805000900098DFF83882D8F800
:100E50000000C1051BD4D8F8000040F48070C8F829
:100E6000000000F03FFB8146D8F80000C1050ED419
:100E700000F038FBA0EB09006528F5D304E73068E3
:100E8000616920F0F80040EAC1003060E6E6E06801
:100E900001287FF45EAF65E71DB1F06920F0805056
:100EA000F061E06938B3716801F00C0108299DD048
:100EB00002288ED100F022F80546306881013FF506
:100EC0007BAF206AB0F5803F05D17168A06821F43E
:100ED0000031014371607268206A616A22F4741201
:100EE00002430A437260012000F009F804463068AA
:100EF00081017FF567AF0020BDE8F28300203866EE
:100F000000F0F0BA2DE9F0410400884672D05E4E40
:100F100000F077F802D200F06FF86BD12068534DE3
:100F2000810712D5400703D5696841F4E061696023
:100F30002078010703D5686840F4605068606968EC
:100F4000A06821F0F001014369602178C80749D504
:100F50006068012802D129688A0303E00228296811
:100F600002D18A0102D445E08A0743D5696889081D
:100F700040EA8100686000F0B5FA07466868616879
:100F800000F00C00B0EB810F2CD000F0ABFAC01BCE
:100F900041F289318842F1D3032021E020784107D2
:100FA00005D56A68E06822F4E06202436A6021784D
:100FB000080706D56968206921F4605141EAC0013B
:100FC000696000F023F86A683049294BC2F30312C4
:100FD000895CC84018602848006800F089FA002041
:100FE000BDE8F081306800F007008045D6D200F0FF
:100FF00003F8D3D00120F3E73168C90848EAC101FA
:101000003160306800F007004045704720491948BA
:101010000A6802F00C03082B00D0704710B500BF1F
:101020001EA4C2F38343D203E35C08D50968584386
:101030001EA3C1F340415A5CB0FBF2F010BD18464C
:101040001449484310BD0A48114A00681368124900
:10105000C3F3022206E006480D4A006813680E49F1
:10106000C3F3C222895CC8407047000000100240F0
:101070000C00002000127A0008000020000042420C
:1010800080044242007000400020024058160008D0
:101090000410024000093D00541700080203040533
:1010A000060708090A0B0C0D0E0F1010010230B4D0
:1010B000002513E050F8042BD30744BFA9F1010326
:1010C0009A18091F042942F8045BFAD213468C07C8
:1010D00044BF15809B1CC90748BF1D7050F8041BF6
:1010E0000029E7D130BC70470901020002D4294829
:1010F00081547047284B02F00F021A4402F8041C76
:101100007047264B19684FF6FF020002114000F4A9
:10111000E0600843224908431860704738B51F4B08
:101120001C68C4F30223C3F10704052C28BF042460
:101130001D1D072D34BF0023DB1E012505FA04F415
:10114000641E2140994005FA03F35B1E1A401143C7
:10115000BDE83440C8E7010007D4012200F01F01B8
:10116000104B8A40400943F82020704710B5401EBC
:10117000B0F1807F01D3012010BD0B4C60600F21C6
:101180004FF0FF30FFF7B0FF0021A1600720206083
:10119000002010BD00E400E018ED00E00CED00E0E0
:1011A0000000FA0500E100E010E000E0002200F09D
:1011B000BFB900002DE9F8470027BE46624A634BDD
:1011C0004FF00F0882460BE0D6683040D06006E052
:1011D00094604C68A402F7D5D0680643D6607F1CA3
:1011E0000E6836FA07F000F0AD80012000FA07F52E
:1011F0002E40AE42F3D1486858B301281AD00228D5
:101200001FD0032833D0112817D012281DD0504CDE
:10121000A0421CBF4F4CA0421BD04F4CA0421CBF51
:101220004E4CA04215D04E4CA0421CBF4D4CA0428B
:101230000FD01EE0D1F80CE01BE0C86800F1040EEE
:1012400017E0C86800F1080E13E0C86800F10C0E42
:101250000FE0886810B94FF0040E0AE001284FF043
:10126000080E14BFCAF81450CAF8105001E04FF02D
:10127000000EB6F5807F03D250464FEA870C05E09A
:10128000A7F108040AF104004FEA840C046808FA84
:101290000CF5AC430EFA0CF52C4304604868C00012
:1012A0009DD51868DFF8C0C040F0010018601C68C8
:1012B00004F001040094BC000098B8085CF82050C9
:1012C00004F00C0408FA04F925EA0909274DAA4597
:1012D00008BF002518D0264DAA4508BF012513D008
:1012E000244DAA4508BF02250ED0234DAA4508BFAC
:1012F000032509D0214DAA4508BF042504D0204D5F
:10130000AA450CBF0525062505FA04F444EA09049C
:101310004CF82040F0434C68E40314684CBF34435D
:10132000044014604C68A40354684CBF3443044028
:1013300054604C689568E4024CBF46EA050400EA34
:10134000050445E7BDE8F18700040140181002409C
:1013500000001110000012100000211000002210E7
:101360000000311000003210080001400008014068
:10137000000C014000100140001401400018014021
:10138000001C01407CB500F0EDF800F07FF83B4810
:101390003B4C4168384D41F00401416040234168B5
:1013A00001F0040100910099426842F00802426095
:1013B000416801F00801009100990268314942F04A
:1013C000010202604FF48042006800F001000090CA
:1013D000009804F5827001604260802100228360E1
:1013E000C160026142618261C261FFF7D7F90022E8
:1013F00000210E20FFF792FE0E20FFF7ACFE002228
:1014000000210F20FFF78AFE0F20FFF7A4FE1E48E1
:1014100028604FF4E1310C20002268616960AA6005
:10142000EA602A61AA61EA612846FEF781FE28681F
:10143000C16841F01001C1600BE0C3B20021D1547A
:10144000401C2678C1B2B142F7D32178201DFFF7A6
:10145000ADFEFF22211D2846FEF7E1FE607801283F
:10146000F7D12278211D2846FEF79DFE002020702E
:101470006070221DE5E70000E0010020141002402A
:1014800010000020080002400038014000B58FB075
:1014900005A82821FFF78AFE68461421FFF786FE7B
:1014A0004FF480310022069107920D9101200590A2
:1014B000099002224FF4E0110C920E9105A8FFF75B
:1014C00091FB022101910F204FF4806100900022D6
:1014D00003910292049202216846FFF713FD0FB0B8
:1014E00000BD704701484068704700BF0000002001
:1014F00038B50D4D0D4B2A7804464FF47A711868B3
:10150000B1FBF2F2B0FBF2F0FFF730FE50B9102C55
:1015100008D2002221464FF0FF30FFF7FFFDAC60FC
:10152000002032BD012032BD000000200C00002050
:1015300000B500BF130096469446103928BFA0E8B6
:101540000C50FAD85FEA417C28BF0CC048BF40F875
:10155000042BC90728BF20F8022B48BF00F8012B35
:1015600000BD000080B50748016841F0100101602E
:101570000320FFF7C6FD0020FFF7BAFFFFF776F85C
:10158000002002BD002002407047FEE7FEE7FEE7B4
:10159000FEE770477047704700F030B81248FFF719
:1015A0000ABA1248FFF707BA1CB5114C216808683F
:1015B000C20613D5002300930A680092496800917F
:1015C00000982046FEF774FE08490A4A08680A494E
:1015D0004068C0F1FF000870012010702046BDE88F
:1015E0001640FEF795BE00009C0100205801002027
:1015F000E0010020110000201000002002494A688C
:10160000087882184A6070470000002010B50E4A22
:101610000E49106840F00100106053680C480B4000
:101620005360146804401460116821F48021116033
:101630004FF41F01506820F4FE00506091604FF09D
:101640000060044A106010BD001002400000FFF866
:10165000FFFFF6FE08ED00E00000000000000000C3
:10166000010203040607080930B450F8041B79B1DD
:101670000268436802440830DC0744BFA9F1010452
:10168000E31852F8045B43F8045B091FF9D1ECE757
:1016900030BC704710B5074979441831064C7C447A
:1016A000163404E00A68081D114488470146A14227
:1016B000F8D110BD0800000028000000F3F9FFFF7A
:1016C0001002000010000020000000009DFFFFFF3E
:1016D0001000000064000000000000200000000076
:1016E00000F00DF8002801D0FFF7D4FFAFF3008021
:1016F0000020AFF30080FFF745FE00F002F8012064
:10170000704700F001B800000746384600F002F8C4
:10171000FBE7000080B5AFF30080024A11001820FB
:10172000ABBEFBE7260002000148804701480047A6
:101730000D16000849170008010000000000000015
:10174000100000000024F400AFF30080AFF300802D
:10175000FFF7C6FF0000000001020304FFF7FEBF11
:10176000FFF7FEBFFFF7FEBFFFF7FEBFFFF7FEBFAD
:10177000FFF7FEBFFFF7FEBFFFF7FEBFFFF7FEBF9D
:10178000FFF7FEBFFFF7FEBFFFF7FEBFFFF7FEBF8D
:10179000FFF7FEBFFFF7FEBFFFF7FEBFFFF7FEBF7D
:1017A000FFF7FEBFFFF7FEBFFFF7FEBFFFF7FEBF6D
:1017B000FFF7FEBFFFF7FEBFFFF7FEBFFFF7FEBF5D
:1017C000FFF7FEBFFFF7FEBFFFF7FEBFFFF7FEBF4D
:1017D000FFF7FEBFFFF7FEBFFFF7FEBFFFF7FEBF3D
:1017E000FFF7FEBFFFF7FEBFFFF7FEBFFFF7FEBF2D
:1017F000FFF7FEBFFFF7FEBFFFF7FEBFFFF7FEBF1D
:10180000FFF7FEBFFFF7FEBFFFF7FEBFFFF7FEBF0C
:10181000FFF7FEBFFFF7FEBFFFF7FEBFFFF7FEBFFC
:10182000FFF7FEBFFFF7FEBFFFF7FEBFFFF7FEBFEC
:10183000FFF7FEBFFFF7FEBFFFF7FEBFFFF7FEBFDC
:04000005080017498F
:00000001FF
