:020000040800F2
:1000000050040020FD0F0008850F0008870F00082E
:10001000890F00088B0F00088D0F000800000000FA
:100020000000000000000000000000008F0F00082A
:10003000910F000800000000930F0008950F0008C2
:10004000191000081D1000082110000825100008D4
:10005000291000082D100008311000083510000884
:10006000391000083D100008411000084510000834
:10007000491000084D1000085110000855100008E4
:10008000591000085D100008611000086510000894
:10009000691000086D100008711000087510000844
:1000A000791000087D1000088110000885100008F4
:1000B000990F0008891000088D10000891100008A1
:1000C00095100008991000089D100008A110000864
:1000D000A5100008A9100008AD100008B110000814
:1000E000B5100008B9100008BD100008C1100008C4
:1000F000C5100008C9100008CD100008D110000874
:10010000D5100008D9100008DD100008E110000823
:10011000E5100008E9100008ED100008F1100008D3
:10012000F5100008F9100008FD1000080111000882
:100130002DE9F843040016D02078DFF85864C10791
:1001400013D5706800F00C00042807D0706800F028
:100150000C00082840D17068C1033DD53068810388
:1001600003D56068002800F0F4802078DFF834744C
:10017000810719D5706810F00C0F07D0706800F077
:100180000C00082860D17068C1035DD43068810715
:1001900003D52069012840F0DC803168606921F0D6
:1001A000F80141EAC00131602178080770D5A069E3
:1001B000DFF8F413002865D001220A6000F00AFA83
:1001C0000546706A810700F1C68000F003FA401B03
:1001D0000228F6D9032035E16068B0F5803F04D1EC
:1001E000306840F48030306014E008B930680AE0CC
:1001F000B0F5A02F306806D140F48020306031681F
:1002000041F4803105E020F480303060316821F421
:1002100080213160606858B100F0DCF90546306833
:100220008103A2D400F0D6F9401B6528F7D3D1E7AB
:1002300000F0D0F905463068810396D500F0CAF980
:10024000401B6528F7D3C5E7206970B101213960EB
:1002500000F0C0F905463068810700F1B68000F073
:10026000B9F9401B0228F6D9B4E7386000F0B2F9BA
:1002700005463168880797D500F0ACF9401B022885
:10028000F7D9A7E7086000F0A5F90546706A81076D
:1002900070D500F09FF9401B0228F7D99AE708B9FA
:1002A000306A09E00528306A06D140F00400306267
:1002B000306A40F0010005E0400840003062306ADA
:1002C00020F00400306241F28938E06868B100F043
:1002D00081F98146306A810700F1848000F07AF963
:1002E000A0EB09004045F5D374E700F073F98146AF
:1002F000306A810776D500F06DF9A0EB0900404522
:10030000F6D367E700F066F9401B02287BD961E766
:1003100000F060F9001B022840F28F805AE700F0DD
:1003200093F804463068810140F18B8000F052F967
:10033000001B0228F6D94DE701280AD07068226A0E
:1003400000F48031914202BF00F47010616A88426B
:1003500077D0012076E0DFF840020168C9084FF449
:100360007A72B1FBF2F2009200BF0098411E0028A1
:100370000091F9D12078410739D5F0690025C100F5
:1003800009D4F06940F08050F0610125F06900F077
:10039000805000900098DFF81482D8F80000C10562
:1003A0001BD4D8F8000040F48070C8F8000000F0BA
:1003B00011F98146D8F80000C1050ED400F00AF901
:1003C000A0EB09006528F5D304E73068616920F0E7
:1003D000F80040EAC1003060E6E6E06801287FF4FA
:1003E0005EAF65E71DB1F06920F08050F061E06913
:1003F00038B3716801F00C0108299DD002288ED114
:1004000000F022F80546306881013FF57BAF206A95
:10041000B0F5803F05D17168A06821F40031014337
:1004200071607268206A616A22F4741202430A439E
:100430007260012000F009F80446306881017FF500
:1004400067AF0020BDE8F2830020386600F0C2B834
:100450002DE9F0410400884672D0554E00F077F83F
:1004600002D200F06FF86BD120684A4D810712D597
:10047000400703D5696841F4E061696020780107AD
:1004800003D5686840F4605068606968A06821F02E
:10049000F001014369602178C80749D560680128E7
:1004A00002D129688A0303E00228296802D18A015F
:1004B00002D445E08A0743D56968890840EA81008B
:1004C000686000F087F807466868616800F00C0013
:1004D000B0EB810F2CD000F07DF8C01B41F28931C8
:1004E0008842F1D3032021E02078410705D56A68CE
:1004F000E06822F4E06202436A602178080706D5CA
:100500006968206921F4605141EAC001696000F026
:1005100023F86A682749204BC2F30312895CC8405C
:1005200018601F48006800F05BF80020BDE8F0810B
:10053000306800F007008045D6D200F003F8D3D031
:100540000120F3E73168C90848EAC1013160306829
:1005500000F0070040457047174910480A6802F04C
:100560000C03082B00D0704710B500BF14A4C2F3D1
:100570008343D203E35C08D50968584314A3C1F34D
:1005800040415A5CB0FBF2F010BD18460B4948439D
:1005900010BD0000001002400C00002000127A0084
:1005A00008000020000042428004424200700040E7
:1005B00000200240040F00080410024000093D0022
:1005C00002030405060708090A0B0C0D0E0F101094
:1005D0000102000001484068704700BF0000002091
:1005E00038B50D4D0D4B2A7804464FF47A711868D2
:1005F000B1FBF2F2B0FBF2F000F054F850B9102C5D
:1006000008D2002221464FF0FF3000F023F8AC6002
:10061000002032BD012032BD000000200C0000206F
:100620000901020002D4294881547047284B02F086
:100630000F021A4402F8041C7047264B19684FF643
:10064000FF020002114000F4E06008432249084321
:100650001860704738B51F4B1C68C4F30223C3F100
:100660000704052C28BF04241D1D072D34BF0023BB
:10067000DB1E012505FA04F4641E2140994005FAA9
:1006800003F35B1E1A401143BDE83440C8E7010084
:1006900007D4012200F01F01104B8A40400943F8A3
:1006A0002020704710B5401EB0F1807F01D301209B
:1006B00010BD0B4C60600F214FF0FF30FFF7B0FF13
:1006C0000021A16007202060002010BD00E400E0B0
:1006D00018ED00E00CED00E00000FA0500E100E09C
:1006E00010E000E038B5040001D1012032BD00F077
:1006F00024F818B900F01DF800F0BDF90FE000680B
:10070000C16841F00101C160816801F0070106295B
:1007100003D0016841F00101016000207047022010
:100720006870211D206800F00DF90120687000201C
:1007300032BD002129702046704704F13C056878DD
:10074000704710B50446206801698A0715D5C1684D
:100750008A0712D56FF002010161012222778069B8
:1007600010F0030F204602D000F0A6F903E000F0DD
:10077000A4F900F087F800202077206801694A0773
:1007800015D5C1684A0712D56FF004010161022234
:100790002277806910F4407F204602D000F08CF967
:1007A00003E000F08AF900F06DF80020207720685F
:1007B00001690A0715D5C1680A0712D56FF008014B
:1007C000016104222277C06910F0030F204602D095
:1007D00000F072F903E000F070F900F053F8002027
:1007E000207720680169CA0615D5C168CA0612D5E6
:1007F0006FF01001016108222277C06910F4407F78
:10080000204602D000F058F903E000F056F900F05D
:1008100039F80020207720680169CA0708D5C16827
:10082000CA0705D56FF001010161204600F046F9C5
:10083000206801690A0608D5C1680A0605D56FF067
:1008400080010161204600F0EFF9206801694A0645
:1008500008D5C1684A0605D56FF040010161204600
:1008600000F0E3F9206801698A060AD5C1688A06A2
:1008700007D56FF0200101612046BDE8104000F06F
:10088000D5B910BD204600F0D2B938B500F04EF809
:1008900001D1022032BD0120207002226270DFF8F7
:1008A00018012A689368034093600868020018BF23
:1008B00010282DD0202818BF302829D0402823D038
:1008C000502816D0602818D0702803D0B0F5005FEB
:1008D00007D021E000F025F82868816841F0770111
:1008E00005E000F01EF82868816841F480418160CD
:1008F00012E000F012F850210BE0CA68496828683D
:1009000000F075F8602104E000F007F8402100E0F5
:100910000146286800F07DF80EE0CA68496828683A
:1009200056E0CB684A68896828687AE0054605F190
:100930003C0420780128704701206070002121705C
:10094000002032BDF0B5DFF874C01D4F03681D4CA8
:100950001D4D1E4E604518BFB84208D0B0F1804F03
:1009600018BFB04203D0A84218BFA0420DD14A68B8
:1009700023F070031343604518BFB84207D0B0F1AD
:10098000804F1CBFB042A84201D0A04203D1CA6828
:1009900023F4407313434A6923F080031343036035
:1009A00060458B68C3620A68826212BFB8420969F7
:1009B000016301224261F0BD8800FFFF002C01406D
:1009C00000340140000C00400008004000040040DA
:1009D00010B5036A046A64086400046223F00A0321
:1009E000846924F0F00444EA0214846123E010B521
:1009F000036A23F0100303628369046A23F47043DB
:100A000043EA023324F0A004836144EA011404623F
:100A100010BD826822F07002114341F0070181602D
:100A2000704710B5846824F47F442143114341EAA0
:100A30000321816010BD1943016210BD1B4881B0C4
:100A4000016841F001010160026802F001020092B8
:100A50000099426842F080524260406800F0805045
:100A6000009000981248016821F0E06141F0807127
:100A7000016001B070470068B0F1804F00D070474E
:100A800080B50C48016841F0010101600022006856
:100A900000F0010000900F2100981C20FFF7DAFD04
:100AA000BDE802401C20FFF7F2BD00001810024014
:100AB000040001401C1002407047704780B520219F
:100AC0003D4800F083F9BDE8044020213B4800F098
:100AD0007DB9000038B586B000F09EF900F07EF8D0
:100AE0006846102100F0AAF93548334D0168334CAF
:100AF00041F040010160026802F040020492049952
:100B0000026842F010020260036803F010030493CD
:100B10000499026842F004020260036803F00403CF
:100B200004930499026842F00802026000220068FF
:100B300000F00800049020210498284600F042F9B3
:100B400001222021204600F03DF900F03DF8284622
:100B500000F06EF800F038F8204600F069F802A8BE
:100B6000102100F06BF900BF2DA0164CD0E9002336
:100B7000CDE900234FF08040206040F21F3141F268
:100B800087300022E0606160A2602261A26120469D
:100B9000FFF7A8FD4FF48050029002A92046FFF70E
:100BA00074FE0021009101912046694600F04AF947
:100BB0002046FFF7A4FDFEE700180140000C0140AD
:100BC0001810024010000020202100910122019203
:100BD00000210291022203926946704718B58FB036
:100BE00005A8282100F02AF96846142100F026F90A
:100BF000012109911022002102240A920C910594EE
:100C000005A8FFF795FA0F200090002101910291AD
:100C1000039104916846FFF71BFC10B010BD000063
:100C200000000000000000007047704770477047E8
:100C30002DE9F8470027BE46684A694B4FF00F0878
:100C400082460BE0D6683040D06006E094604C6885
:100C5000A402F7D5D0680643D6607F1C0E6836FA2A
:100C600007F000F0AD80012000FA07F52E40AE42FB
:100C7000F3D1486858B301281AD002281FD003289E
:100C800033D0112817D012281DD0564CA0421CBFBB
:100C9000554CA0421BD0554CA0421CBF544CA04206
:100CA00015D0544CA0421CBF534CA0420FD01EE0A4
:100CB000D1F80CE01BE0C86800F1040E17E0C8682A
:100CC00000F1080E13E0C86800F10C0E0FE0886810
:100CD00010B94FF0040E0AE001284FF0080E14BFBF
:100CE000CAF81450CAF8105001E04FF0000EB6F5E3
:100CF000807F03D250464FEA870C05E0A7F1080435
:100D00000AF104004FEA840C046808FA0CF5AC43BD
:100D10000EFA0CF52C4304604868C0009DD5186895
:100D2000DFF8D8C040F0010018601C6804F001042E
:100D30000094BC000098B8085CF8205004F00C0443
:100D400008FA04F925EA09092D4DAA4508BF00252E
:100D500018D02C4DAA4508BF012513D02A4DAA450D
:100D600008BF02250ED0294DAA4508BF032509D08A
:100D7000274DAA4508BF042504D0264DAA450CBF1F
:100D80000525062505FA04F444EA09044CF8204038
:100D9000F0434C68E40314684CBF344304401460CF
:100DA0004C68A40354684CBF3443044054604C68FE
:100DB0009568E4024CBF46EA050400EA050445E7ED
:100DC000BDE8F18702B9090401617047C2680A42AF
:100DD00001D041617047016170470000000401408B
:100DE0001810024000001110000012100000211025
:100DF00000002210000031100000321008000140F5
:100E000000080140000C01400010014000140140A6
:100E100000180140001C014080B50748016841F0FE
:100E2000100101600320FFF708FC0020FFF7D8FB4A
:100E3000FFF704FE002002BD00200240002200F067
:100E400021B8000070B500F13C031A78012A01D1E5
:100E5000022070BD01221A7002245C70046865686B
:100E6000A6684A68096825F070050D43656026F09C
:100E700080060068164386600121597000201870B2
:100E800070BD000000B500BF1300964694461039AF
:100E900028BFA0E80C50FAD85FEA417C28BF0CC0FC
:100EA00048BF40F8042BC90728BF20F8022B48BFD1
:100EB00000F8012B00BD000010B50E4A0E49106865
:100EC00040F00100106053680C480B4053601468F8
:100ED00004401460116821F4802111604FF41F0157
:100EE000506820F4FE00506091604FF00060044AAA
:100EF000106010BD001002400000FFF8FFFFF6FE7A
:100F000008ED00E000000000000000000102030402
:100F10000607080930B5016884684218416802EB89
:100F20005103C9070BD54C4409E012F9011B12F813
:100F3000015B002904F8015B05D5491CF9D19A42EF
:100F4000F3D10C3030BD491EF1D5F8E710B5074993
:100F500079441831064C7C44163404E00A68081DB4
:100F6000114488470146A142F8D110BD0800000095
:100F700014000000A1FFFFFF8C0100001A00000018
:100F8000000000207047FEE7FEE7FEE7FEE770473F
:100F90007047704700F006B80148FFF7D2BB000069
:100FA0001000002002494A68087882184A60704799
:100FB0000000002000F00DF8002801D0FFF7C6FF68
:100FC000AFF300800020AFF30080FFF783FD00F057
:100FD00002F80120704700F001B8000007463846CB
:100FE00000F002F8FBE7000080B5AFF30080024A92
:100FF00011001820ABBEFBE7260002000148804725
:1010000001480047B90E00080D100008AFF300803A
:10101000AFF30080FFF7CEFFFFF7FEBFFFF7FEBF85
:10102000FFF7FEBFFFF7FEBFFFF7FEBFFFF7FEBFF4
:10103000FFF7FEBFFFF7FEBFFFF7FEBFFFF7FEBFE4
:10104000FFF7FEBFFFF7FEBFFFF7FEBFFFF7FEBFD4
:10105000FFF7FEBFFFF7FEBFFFF7FEBFFFF7FEBFC4
:10106000FFF7FEBFFFF7FEBFFFF7FEBFFFF7FEBFB4
:10107000FFF7FEBFFFF7FEBFFFF7FEBFFFF7FEBFA4
:10108000FFF7FEBFFFF7FEBFFFF7FEBFFFF7FEBF94
:10109000FFF7FEBFFFF7FEBFFFF7FEBFFFF7FEBF84
:1010A000FFF7FEBFFFF7FEBFFFF7FEBFFFF7FEBF74
:1010B000FFF7FEBFFFF7FEBFFFF7FEBFFFF7FEBF64
:1010C000FFF7FEBFFFF7FEBFFFF7FEBFFFF7FEBF54
:1010D000FFF7FEBFFFF7FEBFFFF7FEBFFFF7FEBF44
:1010E000FFF7FEBFFFF7FEBFFFF7FEBFFFF7FEBF34
:1010F000FFF7FEBFFFF7FEBFFFF7FEBFFFF7FEBF24
:10110000FFF7FEBF0001F9000010FC000124F4BF4E
:0111100000DE
:040000050800100DD2
:00000001FF
