:020000040800F2
:1000000050040020151300089D1200089F120008DC
:10001000A1120008A3120008A512000800000000A9
:10002000000000000000000000000000A71200080F
:10003000A912000800000000AB120008AD12000871
:100040003113000835130008391300083D13000868
:100050004113000845130008491300084D13000818
:100060005113000855130008591300085D130008C8
:100070006113000865130008691300086D13000878
:100080007113000875130008791300087D13000828
:100090008113000885130008891300088D130008D8
:1000A0009113000895130008991300089D13000888
:1000B000A1130008B1120008A5130008A913000835
:1000C000AD130008B1130008B5130008B9130008F8
:1000D000BD130008C1130008C5130008C9130008A8
:1000E000CD130008D1130008D5130008D913000858
:1000F000DD130008E1130008E5130008E913000808
:10010000ED130008F1130008F5130008F9130008B7
:10011000FD13000801140008051400080914000864
:100120000D14000811140008151400081914000813
:1001300038B5040001D1012032BD00F045F818B9EE
:1001400000F03EF800F015FBFFE702206870211D6B
:10015000206800F0BAF901206870002032BD03D198
:10016000416C41F400414164816801F007010629B6
:1001700003D0016841F001010160002010BD38B5D5
:10018000040001D1012032BD00F01EF818B900F0C2
:1001900017F800F04BFBD8E710B500F007F800F0B7
:1001A0000AF81CBFDFF828209042D8E70446012255
:1001B000206800F0B2BA2068DFF818108842704753
:1001C000002129702046704704F13C05687870478B
:1001D00000340140002C014010B50446206801693C
:1001E0008A0715D5C1688A0712D56FF0020101612F
:1001F00001222277806910F0030F204602D000F020
:1002000016FB03E000F014FB00F087F800202077D5
:10021000206801694A0715D5C1684A0712D56FF0F1
:100220000401016102222277806910F4407F204698
:1002300002D000F0FCFA03E000F0FAFA00F06DF8EA
:1002400000202077206801690A0715D5C1680A07D0
:1002500012D56FF00801016104222277C06910F005
:10026000030F204602D000F0E2FA03E000F0E0FACB
:1002700000F053F80020207720680169CA0615D5E0
:10028000C168CA0612D56FF01001016108222277F9
:10029000C06910F4407F204602D000F0C8FA03E0A5
:1002A00000F0C6FA00F039F80020207720680169D4
:1002B000CA0708D5C168CA0705D56FF001010161F9
:1002C000204600F0B6FA206801690A0608D5C16820
:1002D0000A0605D56FF080010161204600F0AAFAF8
:1002E000206801694A0608D5C1684A0605D56FF03D
:1002F00040010161204600F09EFA206801698A06EB
:100300000AD5C1688A0607D56FF020010161204631
:10031000BDE8104000F090BA10BD204600F08DBA44
:1003200070B500F063F801D1022070BD00F06BF8E9
:1003300032B1042A17D0082A28D00C2A39D04AE032
:100340003068294600F0FBF83068816941F0080107
:1003500000F048F821F00401816131688A69286958
:1003600002438A6137E03068294600F014F93068AA
:10037000816941F4006100F035F821F4806100F0FA
:1003800031F82A6941EA0221816124E03068294676
:1003900000F031F93068C16941F0080100F01EF841
:1003A00021F00401C1613168CA6928690243CA6148
:1003B00011E03068294600F04DF93068C16941F418
:1003C000006100F00BF821F4806100F007F82A6961
:1003D00041EA0221C16100F010F870BDC1613068CE
:1003E000C16970478161306881697047064606F1CE
:1003F0003C040D46207801287047012060700021E0
:100400002170002070470120207002216170704728
:1004100038B500F04EF801D1022032BD0120207025
:1004200002226270DFF874022A68936803409360C6
:100430000868020018BF10282DD0202818BF3028C7
:1004400029D0402823D0502816D0602818D07028F2
:1004500003D0B0F5005F07D021E000F025F8286850
:10046000816841F0770105E000F01EF82868816896
:1004700041F48041816012E000F012F850210BE05D
:10048000CA684968286800F024F9602104E000F097
:1004900007F8402100E00146286800F02CF90EE042
:1004A000CA684968286805E1CB684A68896828688D
:1004B00029E1054605F13C04207801287047012018
:1004C000607000212170002032BDF0B5DFF8D0C18E
:1004D000744F0368744C754D754E604518BFB84233
:1004E00008D0B0F1804F18BFB04203D0A84218BF67
:1004F000A0420DD14A6823F070031343604518BF32
:10050000B84207D0B0F1804F1CBFB042A84201D022
:10051000A04203D1CA6823F4407313434A6923F00D
:1005200080031343036060458B68C3620A6882627C
:1005300012BFB8420969016301224261F0BDF0B502
:10054000026A574F520852000262066A446885697F
:100550000B688A6825F0730526F002061D431643D2
:10056000504BB84218BF984207D1CA6826F0080617
:100570001643B84226F0040601D0984205D14B69D3
:100580008A6924F440741C431443446085614968BB
:1005900041630662F0BDF0B5026A414E22F01002DE
:1005A0000262B042056A436884690A6824F4E6443A
:1005B00044EA02248A6825F0200545EA0215394AF2
:1005C00018BF904208D1CF6825F0800545EA07158D
:1005D000B04225F0400501D0904206D14E698A69AB
:1005E00023F44063164343EA860343608461496809
:1005F00081630562F0BDF0B5026A22F48072026286
:10060000056A4368C4698E680A6825F4007524F099
:10061000730445EA06251443214E224AB04218BF0E
:10062000904208D1CF6825F4006545EA0725B0421D
:1006300025F4806501D0904206D14E698A6923F481
:100640004053164343EA06134360C4614968C163DB
:100650000562F0BD70B5026A114E22F4805202624A
:10066000B042046A4268C3690D6823F4E64343EA72
:1006700005238D6824F4005444EA05341CBF094D59
:10068000A84204D14D6922F4804242EA85124260B8
:10069000C36149680164046270BD00008800FFFF07
:1006A000002C014000340140000C004000080040D4
:1006B0000004004010B5036A046A64086400046220
:1006C00023F00A03846924F0F00444EA02148461EC
:1006D0002EE010B5036A23F0100303628369046AF5
:1006E00023F4704343EA023324F0A004836144EA14
:1006F0000114046210BD826822F07002114341F0BF
:1007000007018160704710B5846824F47F44214359
:10071000114341EA0321816010BD10B501F01F01B2
:10072000036A01248C40A343036202FA01F1036AC5
:100730001943016210BD0000384881B0016841F0E2
:1007400001010160026802F0010200920099426812
:1007500042F080524260406800F080500090009863
:100760002F48016821F0E06141F08071016001B023
:10077000704730B585B000F035F82468294DAC429B
:100780001AD12648416841F002014160416801F0F8
:10079000020100910099026842F0080202601021F3
:1007A00000F02FF800F023F8002200211D2000F0B7
:1007B0005FF81D2000F079F805B030BD30B585B088
:1007C00000F010F82468174DAC4209D113480168B5
:1007D00041F008010160202100F013F800F007F853
:1007E00005B030BD044601A8102100F089B80C48BE
:1007F000016821F4406141F0E06141F40061016071
:100800007047006800F00800009002220098064837
:1008100001910292049201A900F076B818100240EA
:100820000400014000040040000C01407047704784
:100830007047704770477047704770470901020062
:1008400002D4294881547047284B02F00F021A4401
:1008500002F8041C7047264B19684FF6FF0200028D
:10086000114000F4E06008432249084318607047D3
:1008700038B51F4B1C68C4F30223C3F10704052CD1
:1008800028BF04241D1D072D34BF0023DB1E0125B6
:1008900005FA04F4641E2140994005FA03F35B1E37
:1008A0001A401143BDE83440C8E7010007D40122D3
:1008B00000F01F01104B8A40400943F82020704788
:1008C00010B5401EB0F1807F01D3012010BD0B4C4C
:1008D00060600F214FF0FF30FFF7B0FF0021A160F3
:1008E00007202060002010BD00E400E018ED00E0CB
:1008F0000CED00E00000FA0500E100E010E000E08F
:10090000002200F0E9B800002DE9F8470027BE46B4
:10091000624A634B4FF00F0882460BE0D6683040C6
:10092000D06006E094604C68A402F7D5D068064316
:10093000D6607F1C0E6836FA07F000F0AD8001200B
:1009400000FA07F52E40AE42F3D1486858B30128AB
:100950001AD002281FD0032833D0112817D012280C
:100960001DD0504CA0421CBF4F4CA0421BD04F4C3E
:10097000A0421CBF4E4CA04215D04E4CA0421CBF02
:100980004D4CA0420FD01EE0D1F80CE01BE0C8682F
:1009900000F1040E17E0C86800F1080E13E0C86803
:1009A00000F10C0E0FE0886810B94FF0040E0AE059
:1009B00001284FF0080E14BFCAF81450CAF810509E
:1009C00001E04FF0000EB6F5807F03D250464FEAAB
:1009D000870C05E0A7F108040AF104004FEA840C33
:1009E000046808FA0CF5AC430EFA0CF52C430460CD
:1009F0004868C0009DD51868DFF8C0C040F001000D
:100A000018601C6804F001040094BC000098B80849
:100A10005CF8205004F00C0408FA04F925EA0909EE
:100A2000274DAA4508BF002518D0264DAA4508BF66
:100A3000012513D0244DAA4508BF02250ED0234D11
:100A4000AA4508BF032509D0214DAA4508BF0425A2
:100A500004D0204DAA450CBF0525062505FA04F44F
:100A600044EA09044CF82040F0434C68E40314685D
:100A70004CBF3443044014604C68A40354684CBF1A
:100A80003443044054604C689568E4024CBF46EA25
:100A9000050400EA050445E7BDE8F18700040140CC
:100AA0001810024000001110000012100000211068
:100AB0000000221000003110000032100800014038
:100AC00000080140000C01400010014000140140EA
:100AD00000180140001C014000B500BF13009646FD
:100AE0009446103928BFA0E80C50FAD85FEA417C40
:100AF00028BF0CC048BF40F8042BC90728BF20F806
:100B0000022B48BF00F8012B00BD00002DE9F8437F
:100B1000040016D02078DFF85864C10713D5706838
:100B200000F00C00042807D0706800F00C000828C2
:100B300040D17068C1033DD53068810303D560683A
:100B4000002800F0F4802078DFF83474810719D58C
:100B5000706810F00C0F07D0706800F00C000828C7
:100B600060D17068C1035DD43068810703D5206906
:100B7000012840F0DC803168606921F0F80141EA29
:100B8000C00131602178080770D5A069DFF8F4133F
:100B9000002865D001220A6000F00AFA0546706A52
:100BA000810700F1C68000F003FA401B0228F6D945
:100BB000032035E16068B0F5803F04D1306840F42F
:100BC0008030306014E008B930680AE0B0F5A02F3A
:100BD000306806D140F480203060316841F48031C3
:100BE00005E020F480303060316821F480213160EC
:100BF000606858B100F0DCF9054630688103A2D482
:100C000000F0D6F9401B6528F7D3D1E700F0D0F902
:100C100005463068810396D500F0CAF9401B652867
:100C2000F7D3C5E7206970B10121396000F0C0F940
:100C300005463068810700F1B68000F0B9F9401B25
:100C40000228F6D9B4E7386000F0B2F905463168F9
:100C5000880797D500F0ACF9401B0228F7D9A7E721
:100C6000086000F0A5F90546706A810770D500F0AC
:100C70009FF9401B0228F7D99AE708B9306A09E0C2
:100C80000528306A06D140F004003062306A40F036
:100C9000010005E0400840003062306A20F00400A6
:100CA000306241F28938E06868B100F081F981462C
:100CB000306A810700F1848000F07AF9A0EB090026
:100CC0004045F5D374E700F073F98146306A810737
:100CD00076D500F06DF9A0EB09004045F6D367E743
:100CE00000F066F9401B02287BD961E700F060F94B
:100CF000001B022840F28F805AE700F093F8044668
:100D00003068810140F18B8000F052F9001B02280D
:100D1000F6D94DE701280AD07068226A00F48031C4
:100D2000914202BF00F47010616A884277D00120BE
:100D300076E0DFF840020168C9084FF47A72B1FB2F
:100D4000F2F2009200BF0098411E00280091F9D1F4
:100D50002078410739D5F0690025C10009D4F06930
:100D600040F08050F0610125F06900F08050009063
:100D70000098DFF81482D8F80000C1051BD4D8F819
:100D8000000040F48070C8F8000000F011F98146BE
:100D9000D8F80000C1050ED400F00AF9A0EB090054
:100DA0006528F5D304E73068616920F0F80040EA6F
:100DB000C1003060E6E6E06801287FF45EAF65E7D9
:100DC0001DB1F06920F08050F061E06938B37168BE
:100DD00001F00C0108299DD002288ED100F022F8E4
:100DE0000546306881013FF57BAF206AB0F5803F52
:100DF00005D17168A06821F4003101437160726807
:100E0000206A616A22F4741202430A43726001206C
:100E100000F009F80446306881017FF567AF0020D3
:100E2000BDE8F2830020386600F0C2B82DE9F04139
:100E30000400884672D0554E00F077F802D200F0D8
:100E40006FF86BD120684A4D810712D5400703D552
:100E5000696841F4E06169602078010703D568683A
:100E600040F4605068606968A06821F0F0010143B7
:100E700069602178C80749D56068012802D12968CE
:100E80008A0303E00228296802D18A0102D445E0DE
:100E90008A0743D56968890840EA8100686000F0E4
:100EA00087F807466868616800F00C00B0EB810FB6
:100EB0002CD000F07DF8C01B41F289318842F1D37B
:100EC000032021E02078410705D56A68E06822F414
:100ED000E06202436A602178080706D569682069E4
:100EE00021F4605141EAC001696000F023F86A68AA
:100EF0002749204BC2F30312895CC84018601F4881
:100F0000006800F05BF80020BDE8F081306800F078
:100F100007008045D6D200F003F8D3D00120F3E7D4
:100F20003168C90848EAC1013160306800F0070043
:100F300040457047174910480A6802F00C03082B17
:100F400000D0704710B500BF14A4C2F38343D2038E
:100F5000E35C08D50968584314A3C1F340415A5CC7
:100F6000B0FBF2F010BD18460B49484310BD00001D
:100F7000001002400C00002000127A00080000203F
:100F800000004242800442420070004000200240C3
:100F90001C1200080410024000093D000203040571
:100FA000060708090A0B0C0D0E0F101001020000B5
:100FB00001484068704700BF0000002038B50D4D63
:100FC0000D4B2A7804464FF47A711868B1FBF2F29F
:100FD000B0FBF2F0FFF774FC50B9102C08D20022DD
:100FE00021464FF0FF30FFF743FCAC60002032BDDC
:100FF000012032BD000000200C000020F0B58DB0B3
:1010000000F0A0F800F079F83648374D016841F05B
:10101000100101600024026802F0100200920099A1
:10102000026842F004020260036803F004030093C4
:101030000099026842F0080202601021006800F086
:1010400008000090009809A8FFF75AFC3BA102A8ED
:10105000D1E90067CDE900671C21FFF751FC0720AB
:10106000686040F2F310E8608020A861AC602C61F9
:1010700028461E4E2E60FFF75BF84FF48050099013
:1010800009A92846FFF7C4F92846FFF778F8009425
:1010900001946946284600F067F8602102910394A4
:1010A000022104910694042202A92846FFF738F988
:1010B0002846FFF783FB04212846FFF76DF808E078
:1010C000641E00F015F8A0B20028F9D1C82000F085
:1010D0006BF8641C00F00CF8A0B2B0F5FA7FF2DAFD
:1010E000F7E7000018100240100000200004004044
:1010F000A0B2B063012000F057B818B58FB005A8B2
:101100002821FFF7FDFB68461421FFF7F9FB0121B9
:1011100009911022002102240A920C91059405A83D
:10112000FFF7F4FC0F200090002101910291039140
:1011300004916846FFF77AFE10B010BD0000000071
:101140000000000080B50748016841F0100101600F
:101150000320FFF780FB0020FFF730FFFFF7ECFADA
:10116000002002BD0020024070B500F13C031A7857
:10117000012A01D1022070BD01221A7002245C7084
:1011800004686568A6684A68096825F070050D431B
:10119000656026F08006006816438660012159705C
:1011A0000020187070BD000038B50446FFF700FF3E
:1011B00014F1010F054602D0044908780419FFF71D
:1011C000F7FE401BA042FAD331BD00BF0000002053
:1011D00010B50E4A0E49106840F0010010605368C7
:1011E0000C480B405360146804401460116821F4EB
:1011F000802111604FF41F01506820F4FE00506000
:1012000091604FF00060044A106010BD0010024071
:101210000000FFF8FFFFF6FE08ED00E00000000010
:1012200000000000010203040607080930B5016848
:1012300084684218416802EB5103C9070BD54C443E
:1012400009E012F9011B12F8015B002904F8015BA7
:1012500005D5491CF9D19A42F3D10C3030BD491E55
:10126000F1D5F8E710B5074979441831064C7C44AC
:10127000163404E00A68081D114488470146A1425B
:10128000F8D110BD0800000014000000A1FFFFFF0E
:101290008C0100001A000000000000207047FEE7EB
:1012A000FEE7FEE7FEE770477047704700F006B8BC
:1012B0000148FEF791BF00001000002002494A6873
:1012C000087882184A6070470000002000F00DF88E
:1012D000002801D0FFF7C6FFAFF300800020AFF376
:1012E0000080FFF78BFE00F002F80120704700F04D
:1012F00001B800000746384600F002F8FBE700009E
:1013000080B5AFF30080024A11001820ABBEFBE7A6
:10131000260002000148804701480047D11100081B
:1013200025130008AFF30080AFF30080FFF7CEFF76
:10133000FFF7FEBFFFF7FEBFFFF7FEBFFFF7FEBFE1
:10134000FFF7FEBFFFF7FEBFFFF7FEBFFFF7FEBFD1
:10135000FFF7FEBFFFF7FEBFFFF7FEBFFFF7FEBFC1
:10136000FFF7FEBFFFF7FEBFFFF7FEBFFFF7FEBFB1
:10137000FFF7FEBFFFF7FEBFFFF7FEBFFFF7FEBFA1
:10138000FFF7FEBFFFF7FEBFFFF7FEBFFFF7FEBF91
:10139000FFF7FEBFFFF7FEBFFFF7FEBFFFF7FEBF81
:1013A000FFF7FEBFFFF7FEBFFFF7FEBFFFF7FEBF71
:1013B000FFF7FEBFFFF7FEBFFFF7FEBFFFF7FEBF61
:1013C000FFF7FEBFFFF7FEBFFFF7FEBFFFF7FEBF51
:1013D000FFF7FEBFFFF7FEBFFFF7FEBFFFF7FEBF41
:1013E000FFF7FEBFFFF7FEBFFFF7FEBFFFF7FEBF31
:1013F000FFF7FEBFFFF7FEBFFFF7FEBFFFF7FEBF21
:10140000FFF7FEBFFFF7FEBFFFF7FEBFFFF7FEBF10
:10141000FFF7FEBFFFF7FEBFFFF7FEBF0001F900B9
:091420000010FC000124F4BF00DF
:0400000508001325B7
:00000001FF
